:100000000201070226C5FFFFFFFFFFFFFFFFFFFF03
:10001000FFFFFFFFFFFFFFFFFFFFFFFFFFFFFFFFF0
:10002000FFFFFFFFFFFFFFFFFFFFFF022AEFFFFFC2
:10003000FFFFFFFFFFFFFFFFFFFFFF022B09FFFF97
:10004000FFFFFF022AC9FFFFFFFFFFFFFFFFFFFFC8
:10005000FFFFFF02273BFFFFFFFFFFFFFFFFFFFF49
:10006000FFFFFFFFFFFFFFFFFFFFFFFFFFFFFFFFA0
:10007000FFFFFFFFFFFFFFFFFFFFFFFFFFFFFFFF90
:10008000FFFFFF02251BE5C754F84401F5C77901BE
:100090002200000080FB120086B900030200F1E498
:1000A00079217808B800028004F709D8FCE479299E
:1000B0007802B800028004F709D8FCE49002817845
:1000C0007F79158002F0A3D8FCD9FA7AFF7B1690CD
:1000D0000137780679048015E493A3AD82AE838A54
:1000E000828B83F0A3AA82AB838D828E83D8E9D9D9
:1000F000E77582A17583B374031201197582917536
:100100008300740012011975D00075813F75188144
:10011000751902759F00020096C09FF59FE473D089
:100120009F22D083D082C09FE493C0E0740193C02B
:10013000E0740293F59F22FF0000B400002800281D
:1001400000283075A000A000A000A0000008000852
:10015000E001F0001000100010001000100010006E
:1001600050005000500010001000D00700000000A8
:1001700000000F00010005003075070010000100AD
:1001800081FF00000000FFFFFF5E067C066406A002
:1001900006FF02020208025000A0000000E803026D
:1001A0002B82010000EF810203820100005A170236
:1001B000F581010000BF020203820100005B17020B
:1001C000F781010000D5020203820100005C1702E2
:1001D0000782010000D7020203820100005D1702BE
:1001E000FB81080000D8020203820100005E1702B2
:1001F000FD810100005F17FF0100FF20022B82013B
:100200000000EC81020382010000C31702FF81009D
:1002100000000000023681030000060317000C0DE9
:100220000C0D0C0D0C0D0C0D0C0D0C0D0C0D0C0D06
:100230000C0D0C0D0C0D0C0DB20FC40FAC0F020207
:1002400002020202020202010D0000001001022B54
:1002500082010000F2810203820100000618021BE5
:100260008201000040070203820100000718021902
:100270008201000029810203820100000818021790
:10028000820100001B81020382010000091802158F
:1002900082010000CB800203820100000A180213D1
:1002A00082010000B9800203820100000B180211D4
:1002B0008201000095800203820100000C18020DEB
:1002C00082010000A7800203820100000D18020BCA
:1002D000820100000D810203820100000E18020954
:1002E000820100000F1801E8030577100A0AD723DE
:1002F0003CFFFFFF00013075030201060000000013
:1003000000000000000000000000000000000000ED
:100310000000000000000000FFFF0600800CE80362
:100320000E0947697A6D6F424C452D3132333405E1
:100330001250002003020A000201060302F0FF47E8
:10034000697A6D6F20576972656C65737343686174
:10035000726765723214000038140A436861726172
:100360006374657269737469632031000243686164
:100370007261637465726973746963203200084343
:1003800068617261637465726973746963203300B4
:100390001043686172616374657269737469632084
:1003A00034000243686172616374657269737469D1
:1003B00063203500022B82010000E98102038201E3
:1003C00000002219022182030000F41602F98101C3
:1003D0000000231902038201000034190223820164
:1003E0000000F51602F981010000351902038201AF
:1003F00000004619022582020000F61602F981016A
:1004000000004719020382010000581902278200E8
:100410000000F716023681030000F81602F9810188
:10042000000059190203820100006A19022982049E
:100430000000FA1602F9810100006B19120122D6A0
:100440008B03120122E98B031201221A8C03120181
:1004500022548C03120122AD8C03120122F48C036E
:100460001201223C8D031201226B8D031201229A8C
:100470008D03120122D18D03120122188E03120165
:1004800022318E03120122868E031201229F8E03D7
:10049000120122ED8E03120122278F031201222462
:1004A000AB0212012227AC0212012260AC0212013F
:1004B0002283AC0212012295AC02120122D3AC02BB
:1004C0001201224FAD0212012217AE02120122398F
:1004D000AE02120122D0AE0212012222AF0212019C
:1004E0002253AF0212012260AF02120122CAAF02F0
:1004F00012012221B00212012224B0021201225D57
:10050000B00212012260B0021201226AB00212018E
:1005100022BEB002120122FFB00212012232B10249
:100520001201226FB10212012271B20212012215D0
:10053000B3021201227EB302120122BCB3021201E5
:10054000220584031201222D84031201225A8403FE
:10055000120122928403120122F084031201223C30
:100560008503120122A38503120122E385031201F0
:10057000222086031201224E8603120122F88603EE
:100580001201220287031201220F87031201224265
:1005900087031201224E870312012266870312018C
:1005A0002270870312012288B10312012296B1033F
:1005B000120122AEB103120122C5B103120122E4DD
:1005C000A6011201228EA701120122A1A801120187
:1005D000221DA9011201223BAA0112012277AA01C0
:1005E00012012212AB01120122F6AB01120122C24A
:1005F000AC0112012250AE01120122C1AE01120162
:10060000227BAF011201226DB001120122ADB001B7
:1006100012012261B10112012293B101120122895A
:10062000B301120122CBB301120122E9B30112017D
:10063000224FB4011201221EB501120122E2B501BE
:1006400012012201B801120122F3C302120122DDBC
:10065000C40212012288C502120122D9C502120168
:100660002289C602120122FAC602120122DFC70243
:1006700012012213C8021201220CC90212012249DE
:10068000C90212012225CA0212012264CA02120101
:100690002280CA02120122E5A30312012269A403E7
:1006A00012012294A403120122AEA5031201220F0B
:1006B000FC0212012225FC0212012243FC0212015B
:1006C0002254FD021201225EFD0212012289FE0265
:1006D00012012280FF02120122EDFF021201228785
:1006E000D102120122BDD202120122F4D202120161
:1006F000224BD30212012260D5021201222E820166
:10070000120122BA82011201221E84011201222A40
:100710008401120122658401120122D48401120194
:1007200022DD8501120122E68601120122AD870138
:100730001201220A8901120122288901120122458F
:100740008901120122F289011201226F8A0112012C
:1007500022978A01120122618D01120122668D0108
:100760001201227F8F01120122CD8F011201223D41
:1007700090011201227B9001120122579101120176
:100780002217920112012263920112012266920144
:10079000120122AA9201120122F2920112012231C7
:1007A0009301120122539301120122879301120136
:1007B00022EA930112012277DC0212012285DC0277
:1007C000120122D8DC02120122F7DC021201223CC3
:1007D000DD0212012280DE021201221BDF02120161
:1007E000225FDF0212012289DF02120122F8DF02FA
:1007F0001201223EE002120122B5E002120122663D
:10080000E102120122842B00120122942B0012011A
:1008100022352C00120122912C001201224E2D00B3
:100820001201226A2E001201229C2E00120122CBFC
:100830002E00120122783000120122EF3200120144
:10084000225F35001201225136001201224A370080
:10085000120122513900120122453C00120122747A
:100860003D00120122783F0012012288400012014F
:1008700022174200120122084300120122564300AF
:10088000120122C54300120122E943001201223A5B
:100890004400120122DB4800120122DC490012014F
:1008A000223D4A00120122684A001201222E4B000A
:1008B000120122D5F702120122DFF70212012224CF
:1008C000F80212012238F802120122C8F8021201BD
:1008D0002201F9021201223CF90212012265F902F9
:1008E000120122B9F902120122CEF902120122F0FC
:1008F000F90212012205FA0212012219FA0212016A
:10090000222EFA0212012268FA0212012294FA023D
:10091000120122DDFA021201224FFB021201229281
:10092000FB02120122BCFB02120122E7FB021201B0
:10093000229FAD03120122888D021201226B8E02CA
:10094000120122E68E02120122218F02120122726E
:1009500090021201220091021201229293021201CE
:1009600022449402120122509502120122C39602DF
:100970001201221C970212012243EF021201228669
:10098000EF021201220AF002120122E1F202120128
:1009900022779F0312012229A00312012225A1031D
:1009A00012012264A103120122BEA103120122DD61
:1009B000A50312012240A603120122DDA6031201A3
:1009C0002212A70312012242A7031201227DA703CC
:1009D0001201229DA70312012278E10212012204D2
:1009E000E202120122C3E202120122DBE30212013F
:1009F00022F5E5021201224774001201226C7400F4
:100A00001201223975001201220D76001201227A9C
:100A10007600120122BA76001201225677001201E6
:100A2000228A7800120122657900120122C479001D
:100A3000120122507A00120122BE7A001201224ACB
:100A40007B00120122907B00120122027C00120125
:100A500022947C00120122357D00120122557D0076
:100A60001201229D7D00120122E67D001201220268
:100A70007E00120122287E00120122A27E001201B5
:100A800022B07E001201223F7F00120122A87F00C7
:100A90001201222CE602120122B1E602120122F317
:100AA000E602120122D7E70212012244E8021201F3
:100AB0002288E802120122CCE802120122F9E8029F
:100AC00012012221E90212012259E90212012297A0
:100AD000E902120122BEE90212012238EA021201E1
:100AE0002282EA021201220EB801120122ADB901DE
:100AF000120122E5BB0112012239BC01120122645C
:100B0000BC0112012240BD0112012270BD0112017F
:100B1000229FBD01120122B2BD01120122F3BD01CB
:100B200012012220BE011201226EBE01120122AA70
:100B3000BE01120122EFBE011201223CBF011201CF
:100B400022B6BF01120122F7C101120122E1C30145
:100B50001201221DC401120122ACC501120122F1B1
:100B6000C50112012264C601120122B9C601120197
:100B700022BEC60112012248C70112012267C80124
:100B800012012278C80112012285A102120122FE5F
:100B9000A102120122B8A702120122C3A802120167
:100BA000226CAA02120122FAAA0212012234600067
:100BB000120122B56000120122E260001201222B14
:100BC00061001201222C62001201228562001201D2
:100BD000220164001201228364001201229E64003B
:100BE0001201220F6500120122CC65001201228F32
:100BF00066001201221D6700120122D46700120153
:100C000022E76700120122806800120122176900A2
:100C10001201223E6900120122A76900120122F18D
:100C200069001201223F6A00120122E46A001201E7
:100C300022826B001201220F6C00120122806C00D4
:100C4000120122C76C001201221F6D0012012251F5
:100C50006D001201220B6E00120122126F001201B0
:100C6000225B6F00120122786F00120122976F0041
:100C7000120122CA7000120122817100120122A603
:100C80007100120122BB71001201222B72001201AD
:100C9000226C720012012290730012012211740062
:100CA000120122C597021201221098021201221C81
:100CB0009802120122F098021201220799021201F1
:100CC00022449902120122759902120122AD990261
:100CD000120122039A02120122199A0212012255CC
:100CE0009A02120122689A021201228F9A021201BC
:100CF00022C39A02120122E99B02120122339D02B1
:100D00001201222F9E021201224C9F02120122790F
:100D10002B001201229BC801120122D6C801120128
:100D20002228CC0112012284CD0112012243CE01DE
:100D3000120122AAD10112012294D201120122E051
:100D4000D201120122FAD20112012237D30112017B
:100D50002242D30112012281D3011201228AD3013E
:100D600012012234D4011201220BD5011201225F9B
:100D7000D501120122BCD5011201222ED601120189
:100D800022C2940112012221980112012227980106
:100D9000120122589F011201225FA301120122C7F2
:100DA0009603120122A49703120122E8970312016D
:100DB00022229803120122BA9803120122299903D0
:100DC0001201223299031201223E99031201225884
:100DD0009903120122829903120122B2990312018E
:100DE0002293F302120122A0F302120122BAF302AB
:100DF000120122EDF3021201222BF40212012290C1
:100E0000F402120122A5F402120122B0F40212012E
:100E100022BDF402120122D4F402120122E2F402F1
:100E2000120122EDF402120122F9F4021201220849
:100E3000F50212012213F50212012236F502120107
:100E400022DAF502120122EAF50212012204F60268
:100E500012012221F6021201223CF6021201226145
:100E6000F6021201226CF60212012281F602120130
:100E70002295F602120122F6F602120122FCF60277
:100E800012012202F70212012208F70212012220A7
:100E9000F70212012253F702120122058002120109
:100EA000229C800212012234810212012224820239
:100EB0001201225B82021201226E8202120122DCE6
:100EC00082021201227784021201229E8402120100
:100ED00022408502120122758502120122868502B6
:100EE000120122FF850212012220860212012238FD
:100EF00086021201229087021201229989021201B0
:100F000022E98B02120122EC8C021201223B8D029B
:100F10001201227DD7011201227AD8011201226525
:100F2000D9011201226FD90112012291D9011201B6
:100F3000229DD901120122EFDA011201221EDB01EA
:100F40001201224EDC0112012290DC01120122BCAE
:100F5000DD0112012292DE01120122E4DE01120102
:100F60002243DF011201227ADF01120122B5DF01E3
:100F700012012250E30112012269E301120122EB66
:100F8000E301120122F9E3011201224EE4011201F0
:100F9000225CE401120122C9E4011201223BE501B5
:100FA00012012281E50112012245F401120122679A
:100FB000F40112012251F601120122F6F901120187
:100FC0002239FB0112012213FC01120122ABA703FB
:100FD000120122D0A70312012241A803120122E22A
:100FE000B302120122EBB302120122F4B302120186
:100FF0002225B50212012244B7021201227AB70259
:10100000120122B4B702120122EAB702120122240D
:10101000B80212012258B80212012284B802120149
:1010200022CDB80212012207B9021201224FB902E1
:10103000120122A5B902120122DAB90212012235E7
:10104000BA021201226FBA02120122C0BA021201C0
:1010500022F6BA0212012230BB021201225EBB024A
:1010600012012281BB0212012255FF0112012281CD
:10107000FF01120122DCFF01120122E6FF01120131
:1010800022F6FF01120122E09903120122079A03BE
:10109000120122329A03120122F4B3031201229A9E
:1010A0004B00120122004E00120122B74F00120124
:1010B000221450001201221651001201229E5100EA
:1010C0001201222552001201224A52001201223F2F
:1010D0005500120122B055001201229F5600120144
:1010E00022D95600120122195700120122BA5800C3
:1010F0001201220D5900120122565900120122C478
:101100005900120122F65900120122105A00120150
:1011100022265B00120122365B00120122BC5C0019
:10112000120122DC5C00120122125D0012012292E7
:101130005E00120122D15E001201220F6000120136
:1011400022C2EA021201221AEB0212012262EC020E
:10115000120122D1EC0212012280ED021201229F23
:10116000ED02120122F3ED0212012231EE02120110
:101170002200B5031201223EB4031201227DB40302
:10118000120122EBB40312012255B20312012265AF
:10119000B2031201227AB203120122C3B203120176
:1011A00022B3AE0312012237AF031201229FAF0315
:1011B0001201225CAC0312012290AC03120122B98D
:1011C000AC0312012230AD03120122F77F0012019D
:1011D00022FE87031201222188031201229A88032A
:1011E0001201226F8903120122418B03120122FF97
:1011F000AA0312012296AB03120122E9AB031201EA
:1012000022F8AB0312012259AC031201228F8F0383
:10121000120122DA8F031201222D9003120122A55E
:10122000900312012203910312012244910312013F
:1012300022A791031201221092031201229192031C
:10124000120122A69203120122D19203120122AFAF
:10125000B003120122D8B00312012201B10312011E
:101260002243B10312012227D70212012231D702F1
:1012700012012271D702120122BAD702120122F4FE
:10128000D7021201224AD80212012269D8021201A1
:101290002272D802120122C3D802120122ECD80213
:1012A00012012201D90212012271D902120122FF78
:1012B000D90212012243DA021201226CDA0212016F
:1012C00022EBDA0212012228DB021201225FDB028A
:1012D00012012271DB0212012290DB02120122991B
:1012E000DB021201224BDC0212012261A90312016E
:1012F00022B2A9031201223BAA03120122A1AA03CE
:10130000120122B69C03120122E09C03120122D595
:101310009D03120122049E031201228B9E031201DF
:1013200022B8AF03120122E9A1031201221FA20376
:1013300012012252A203120122ABA303120122CCFA
:10134000B203120122E2B203120122ECB203120133
:101350002242B3031201220FBC02120122CCBC02B2
:1013600012012207BD0212012238BD021201229A87
:10137000BD02120122E6BD0212012251BE0212017B
:1013800022CBBE02120122CABF0212012251C102A7
:10139000120122D4C1021201223AC2021201224DCC
:1013A000C20212012248C30212012295C302120195
:1013B00022008003120122168003120122BA800348
:1013C000120122F980031201221681031201224721
:1013D0008103120122948103120122C881031201A8
:1013E00022038203120122F883031201220AE6017A
:1013F000120122C1E90112012253EB01120122AABA
:10140000EB01120122C9EB0112012247EC0112018A
:1014100022D9ED01120122BDEE01120122CEF2010C
:10142000120122A2F301120122E1CA0212012235A5
:10143000CD02120122A2CF0212012242D0021201D9
:10144000223393031201229B9303120122B89303C8
:10145000120122839403120122D69403120122B9AD
:10146000950312012287B403120122CB7F001201DF
:1014700022CDB403E066701008A3E066700A08A3EA
:10148000E066700408A3E06622C3E7960809E796C1
:101490000809E7960809E79622C3E09608A3E096B4
:1014A00008A3E09608A3E09622C008C3E096F508DA
:1014B00008A3E096420808A3E096420808A3E09635
:1014C00045087001D3D00822080808E630E7111259
:1014D0001A7C1214E0080808C64480C6181818229E
:1014E000181818E9799EC608CAC608CBC608CCC623
:1014F000C370207996CACBCC7019798ECBCC70137F
:101500007986CC700EF9802ACA33CACB33CBCC3360
:10151000CC331930E7F2CCCBCA3350147004EA3024
:10152000E00DE4CA3ACACB3BCBCC3CCC500209C359
:10153000E913C6CC182313C6CB18C6CA18C6F9229D
:1015400012158020F01430E72B74FFFCFBFA747F37
:101550008022E4FCFBFA7480801AB48008BC00F29C
:10156000BB00EF800F50EBF9E4C39AFAE49BFBE475
:101570009CFCE499C6CC18C6CB18C6CA18C6F9227A
:10158000E4C9C608CAC608CBC6D3330308CCC633E1
:1015900092F0C3947F402E94184019C9B90704CA29
:1015A000CBCC225025C309CA33CACB33CBCC33CCE6
:1015B00033D9F422F4600DC9CCC313CB13CBCA13B7
:1015C000CAD9F6CC22E4FCFBFA2214FCFBFA22E690
:1015D0002618461846184622E7271947194719477B
:1015E00022181818E60846087009E626087005E66D
:1015F00033F4220822191919E70947097009E72766
:10160000097005E733F4220922E6084608C31346A9
:1016100008336002E633F422E7094709C313470998
:10162000336002E733F42200121609604F121618D5
:101630006012E7548066F61215E170111215D87029
:101640003B090909F4F618F618F618F6221215F5F2
:1016500070151215CF08080860EAE6447FF6187680
:101660008018E4F618F6221215CF60161215D870FD
:1016700012E4F608F608F608E65480F60909091897
:10168000181822EAC0E0EBC0E0ECC0E0EDC0E0E6F4
:1016900087F0A4FBACF008E687F0A42CFCE435F05E
:1016A000FA1809E687F0A42C4B60027401CA35F0E1
:1016B000FCE433FB09E687F0D2F7A42CCB35F0FC31
:1016C0001908E687F0A42BCC35F0FBE433FD0819AC
:1016D000E687F0D2E7A42C4ACB35F0CD3400FC09E4
:1016E000E687F0D2E7A42DCC35F0FDE433FA0918F3
:1016F000E687F0D2F7A42CCD35F0CA3400FC08E61A
:1017000087F0D2E7D2F7A42ACC35F07A7E20E70B17
:101710000ACB33CBCD33CDCC33CC33CB3350147059
:1017200004ED30E00ED2F1E4CD3DCDCC3CCC3B50CD
:1017300005DA05C2F1EB547FC63308E63392F0FBBD
:10174000E73309E733C39A502D2B70190C0D4C4D1C
:1017500070151806E608C333700D20F10AA2F013C5
:10176000F6E418800B4024E4F630F002768018F698
:1017700018F618F68024D33B14501074FFA2F0130F
:10178000F6187680E418F618F6800FA2F013F61813
:10179000E63303F618ECF618EDF6D0E0FDD0E0FCE9
:1017A000D0E0FBD0E0FA22121609700418181822B3
:1017B000121618700D74FFF61819F61819F6181984
:1017C000F622E7548066F61215CF700F1215D87006
:1017D000F014F608F608F608F680D11215D8700C49
:1017E000F608F608768008E6447F80EC1215F8705B
:1017F0000C1215E460BFE65480F6E480BB1215E4D9
:10180000700519191980A5E869700C763F18768063
:1018100018F618F6E8F922E6CDC0E018ECC0E0E6CC
:1018200033CD33CDD313F6E719FCE7191933CC3395
:10183000C3947F400ECD9D502408E65480F6E418F2
:10184000F6800FF4043D14501408E6447FF6187631
:1018500080E418F618F6D0E0FCD0E0FD22CCD313DB
:10186000CCFD18E4C6CBC0E018E4C6CAC0E0080846
:10187000ED08C633E613F618E433C675F003C3CAA1
:1018800097CA09CB97CB199C40047D08802EBD00D8
:101890000302195016B6FF050606081618C3CA3308
:1018A000CACB33CB33CA27CA09CB37CB193CC37D4C
:1018B00008803E187D0820E75CC633C6CA33CACB11
:1018C00033CB33DDF1D5F0EB30E77BCA97CA09CBD8
:1018D000974ACB199C406F4B7025E620E02180662B
:1018E000187D08C3CA97CA09CB97CB199CD3C633B6
:1018F000C6CA33CACB33CB3350C9DDE7D5F0E1D309
:10190000E4C636C608C636C608C636C608C636C6D3
:101910001818188031C3CA97CA09CB97CB199CB342
:101920004097C633C6CA33CACB33CB33DD34D5F088
:101930002EC6A2E0C640C8CA27CA09CB37194A70CA
:10194000BECB3CB480B90808E63308E633601F1804
:101950001818D0E0FAD0E0FBD0E0FCD0E0FD22186F
:101960007D08CA27CA09CB37CB193CD3808013F630
:1019700018E4B67F11F618B6FF0EF618C60470D23A
:101980000808768080CAF618F618F680C508080898
:10199000EAC0E0EBC0E086F0E7A4FA180986F0E7B9
:1019A000A42AFA180986F0E7A42AFA180986F0E7AB
:1019B000A42AFA1986F0E7A4FBE5F02AFA190886AA
:1019C000F0E7A42BFBE5F03AFA190886F0E7A42B20
:1019D000FBE5F03AFA18180986F0E7A4C5F02BFBEE
:1019E000E43AFA1908E7C5F0C6A426F6E5F03BFB91
:1019F000E43AFA1886F0E7A4F6E5F00826F6E43BA8
:101A000008F6E43A08F6D0E0FBD0E0FA22E4CFC0D2
:101A1000E0E4CEC0E0E4CDC0E0E4CCC0E075F0206E
:101A2000E626F608E633F608E633F608E633F61857
:101A30001818EC33FCED33FDEE33FEEF33FFC3EC4F
:101A40009709ED9709EE9709EF97191919400FFFBC
:101A5000EC97FC09ED97FD09EE97FE191906D5F0F4
:101A6000BFECF709EDF709EEF709EFF7191919D0EF
:101A7000E0FCD0E0FDD0E0FED0E0FF22181818E432
:101A8000C396F608E496F608E496F608E496F6227D
:101A90006016080808C6C313C618C613C618C613AE
:101AA000C618C613C6D5E0EA2270090808082260E5
:101AB00016181818C6C333C608C633C608C633C6B8
:101AC00008C633C6D5E0EA22E627F60809E637F667
:101AD0000809E637F60809E637F622E026F608A3F5
:101AE000E036F608A3E036F608A3E036F622E02654
:101AF000F008A3E036F008A3E036F008A3E036F0E3
:101B000022C3E697F60809E697F60809E697F6086D
:101B100009E697F622C3E096F008A3E096F008A342
:101B2000E096F008A3E096F022E056F608A3E0560F
:101B3000F608A3E056F608A3E056F622E056F008B1
:101B4000A3E056F008A3E056F008A3E056F022E028
:101B5000F608A3E0F608A3E0F608A3E0F622E6F014
:101B600008A3E6F008A3E6F008A3E6F022E0FAA353
:101B7000E0FBA3E0FCA3E0FD22E0F8A3E0F9A3E092
:101B8000FAA3E0FB22E8F0A3E9F0A3EAF0A3EBF06C
:101B900022CAC0E0E6F0A308DAFAD0E0FA22CAC00E
:101BA000E0E0A3C582CCC582C583CDC583F0A3C5C3
:101BB00082CCC582C583CDC583DAE6D0E0CA22C314
:101BC000E498F8E499F9121C008026C3E49AFAE438
:101BD0009BFBE920E7E9121C00E498F8E499F9225C
:101BE000C3E498F8E499F9121C00E498F8E499F930
:101BF000C3E49AFAE49BFB22EB20E7CFE920E7E07D
:101C0000B90010BB0008E88AF084F8AAF022E4FBCF
:101C1000C8FA22EB70227B10C833C8C933C93350CD
:101C200007C39AC3DBF280069A50012ADBEAC83365
:101C3000F4C8C933F4C9FA2275F008E4C833C8C936
:101C400033C933C99AC99B5004C92AC93BD5F0ECA2
:101C5000FBC833F4C8E4C9FA22600D08C6A2E71332
:101C6000C618C613C6D5E0F322600C08C6C313C657
:101C700018C613C6D5E0F422700422600D18C6C33E
:101C800033C608C633C6D5E0F41822251810AF08AD
:101C9000F518400C15198008F51840021519D2AF37
:101CA0002200C0D0251810AF08F518500C05198077
:101CB00008F51850020519D2AFD0D0222518F582A8
:101CC00010AF08F518400C15198008F518400215DA
:101CD00019D2AF851983222518F582E43519F583C9
:101CE000222518F8E43519F9222518FAE43519FBEC
:101CF000222518FCE43519FD22E4732518C582C09D
:101D0000E0E51934FFC583C0E0E518C3958224F8E7
:101D100010AF08858319858218800885831985820C
:101D200018D2AFCEF0A3E520F0A37808E608F0A320
:101D3000DEFAEFF0A3E58124FAF8E608F0A3E6085E
:101D4000F0A3E608F0A30808E608F0A3E608F0A36D
:101D500015811581D0E0FED0E0F81581158115813F
:101D6000E8C0E0EEC0E0222518C582C0E0E51934E5
:101D7000FFC583C0E0E518C3958224F910AF08853C
:101D800083198582188008858319858218D2AFCE81
:101D9000F0A3E520F0A37808E608F0A3DEFAEFF060
:101DA000A3E58124FBF8E608F0A3E608F0A3080801
:101DB000E608F0A3E608F0A315811581D0E0FED077
:101DC000E0F815811581E8C0E0EEC0E022851983B6
:101DD000851882E0A3FEE0A3F5207808E0A3F608CA
:101DE000DFFAE0A3FFE0A3C0E0E0A3C0E0E0A3C00F
:101DF000E0E0A3C0E0E0A3C0E010AF088582188552
:101E000083198008858218858319D2AFD083D08248
:101E100002011F851983851882E0A3FEE0A3F52047
:101E20007808E0A3F608DFFAE0A3FFE0A3C0E0E053
:101E3000A3C0E0E0A3C0E0E0A3C0E010AF0885824B
:101E4000188583198008858218858319D2AFD083BD
:101E5000D08222C0D02518C582C0E0E51934FFC564
:101E600083C0E0E518C3958224F310AF0885831979
:101E70008582188008858319858218D2AFC8F0A39F
:101E8000E9F0A3EAF0A3EBF0A37908E709F0A3D8FF
:101E9000FAECF0A3EDF0A3EEF0A3EFF0A3D0E0F0A6
:101EA000A3D0E0F0A3D0E0F0A3E520F0A3E5F0F0AC
:101EB000A322851983851882E0C0E0A3E0F9A3E09E
:101EC000FAA3E0FBA37808E0F608A3DFFAE0FCA39E
:101ED000E0FDA3E0FEA3E0FFA3E0C0E0A3E0C0E0DC
:101EE000A3E0F5D0A3E0F520A3E0A3F5F010AF0840
:101EF0008583198582188008858319858218D2AF59
:101F0000D082D083D0E0F8D0E0327404800674022E
:101F100080027401C0E0F404121CBCD0E0121B91DA
:101F2000227404800474028000CCC0E0EDC0E0E5BF
:101F300018C39CCCAD1950011D10AF068C188D191B
:101F400080068C188D19D2AF121B9ED0E0FDD0E018
:101F5000FC22D083D082E9C0E0E493A3C386F0C51D
:101F6000F095F0F908E493A386F0C5F095F0700BB6
:101F7000E493A3C3994005E9048002A3E475F00249
:101F8000A42582F582E5F03583F583D0E0F9E4936A
:101F9000A3C0E0E493C0E022D083D082ECC0E0EDA7
:101FA000C0E0E493A3FCE493A3FDED4C600D121F8D
:101FB000E4EC24FFFCED34FFFD80EFE493A3FCE4AC
:101FC00093A3FDED4C600D122023EC24FFFCED34B7
:101FD000FFFD80EFD0E0FDD0E0FCE493A3C0E0E49F
:101FE00093C0E022C0E0C3E493960874019396186E
:101FF000400FE493667008087401936618700070CF
:1020000019A3A3C3E49396087401939618A3A3405D
:102010000DD0E0D0E0D0E0021FD4A3A3A3A3A3A3DC
:10202000D0E022C0E0C0F088F0E493667008087445
:10203000019366187000A8F0A3A3700BD0F0D0E055
:10204000D0E0D0E0021FD4A3A3D0F0D0E022FFFF65
:1020500074F6121D67EAFEEBFF8C088D09EE24343E
:10206000F8E43FF9E8FCE9FDEE2435122363FAEECB
:102070002437122363F88508F0A4C885F00A85097F
:10208000F0A4250AF9EA28F8E439F97A257B001248
:102090001C00EA8C828D83F0FA131313541FF8EEA0
:1020A00028F8E43FF9E8245DF582E439F583E0C0DF
:1020B000E074075AF8D0E0B800028004C313D8FCDB
:1020C000A2E0EE50082434F582E43F801824361252
:1020D0002363F5F0EA84A8F0EE28F8E43FF9E82459
:1020E00038F582E439F583E0F97F03021E1374F7B3
:1020F000121D67EAFEEBFFEE2434122363C0E0EE0C
:102100002435F582E43FF583D0E0F08E828F83A3FF
:10211000A3A3A3A3A3A3C082C0838E828F83A3A300
:10212000A3A3A3E0F8A3E0F9D083D082E0C398F59D
:1021300008A3E099F509EE247F1223636401703E41
:10214000EE2480F582E43FF583C082C0838E828FC7
:1021500083A3A3A3A3A3E0240108A3E03400F9D040
:1021600083D082E0687003A3E06970127CB17D04C3
:10217000120C4CEE247FF582E43FF583E4F0AC08CA
:10218000AD09EEFAEFFB122050E9F9122ABB7F02EB
:10219000021E13C082C083851882851983E0F8A3CC
:1021A000E0F9C3EA9CEB9D5010C3EC98ED99401BFD
:1021B000C3EA98EB995014800EC3EA98EB99400754
:1021C000C3EC98ED994004790180027900D083D066
:1021D0008222EAC39CFAEB9DFB2274EF121D6790EA
:1021E0000376E064086005E06407702A9061C8E047
:1021F00060249003A4E0F4601DE0F875F00BA4C81F
:10220000AAF02AF974A628FE740339FF8E828F8300
:10221000A3A3A3E070030222E8906060E0C0E0EEB8
:102220002468F582E43FF583D0E0F0750C21750D4C
:1022300005750800750900E5D914F50AE5D95403B8
:10224000F50E60127403650E6043E50A600AEE2421
:10225000671223637002807590051CE06401601FA3
:1022600012236060047A0480027A00E50AC39AFAB5
:1022700095E0FB120AF68A088B09EA4509700512F7
:102280000E7A806412236070048A0C8B0DE50A605C
:1022900012850C82850D83F50BE5D9F0A3150BE5AE
:1022A0000B70F6122360604474FC250AF50A780C62
:1022B000121F0EAC0AA90EEEFAEFFB120D06740205
:1022C000121CA1E97026AA08AB091212EE793D8E04
:1022D000828F83A3A3A3A3E0FA7B00120958EEFA2E
:1022E000EFFB120C70120D187900806F7403650EED
:1022F0006051850A107511007810121F0EAC0CADDC
:102300000DAA08AB09120CCA7402121CA1EE2468B3
:1023100012236364807004747F8001E0F50C780CF4
:10232000121F12E50EF50C780C121F12A90AAC0848
:10233000AD099003A4E0FA7B0012092E7402121C6E
:10234000A18013900376E06408600BAC0CAD0DEE39
:10235000FAEFFB120D90120E8679017F0A021E130E
:10236000EE2483F582E43FF583E02274F2121D67C8
:1023700074FC121C8BEAFEEBFF8909A2AFE433F573
:1023800008C2AF022435E0601B780C121F0EAC0BA4
:10239000A90EEEFAEFFB120D007402121CA17404D8
:1023A000250BF50B7401250BF5D9850ED9E50B60CE
:1023B00018F50A850C82850D83E0F5D9A385820C7A
:1023C00085830D150AE50A70EA75E195EE2463F838
:1023D000E43FF97A007B00A2AFE433F50BC2AF888B
:1023E000828983E0FCA3E0FDEC4D603A888289831A
:1023F000E0FAA3E0FB8A828B83E0FCA3E0FD888205
:102400008983ECF0A3EDF08A828B83E4F0A3F0885B
:10241000828983E0FCA3E0FDEC4D700A8882898309
:10242000A3A3E4F0A3F0E50BA2E092AF1212EE90AA
:1024300004B8E004F0EE2463122363F8A3E0F9E8A3
:10244000496064EE24631223632402F8A3E034009D
:10245000F988828983E5822402F50CE43583F50D41
:10246000E0F50BA3E0F50EEE246212236364017025
:10247000369061D0E0F812236060047C0480027C16
:10248000007480C398FA95E0FBE50B2CF8E4340067
:10249000F9E82402F8500109C3EA98EB99A2D26541
:1024A000D03340030223869004B8E0604D9004B915
:1024B000E0F89004B8E0C398500C74026509703AD3
:1024C0009004BAE060348E828F83A3A3A3A3E08537
:1024D000188285198312250A7402121CD7E8122566
:1024E0000A9004B7E028F07402121CF1AA18AB1984
:1024F00079011209829004B8E4F0E508A2E092AFF5
:102500007404121CA17F07021E13F0A3E4F09004D0
:10251000B8E0F8228521878522C622C0E074EB123C
:102520001E53A2AFE433F508C2AF759B00906182E1
:10253000E0A2E05030E591A2E0502A7591FE7401CE
:10254000652170211226AE120DD212269C121F2177
:102550001228657404121CA1E96401700579011246
:102560000E0E1221DA906182E0A2E5505DE591A2A3
:10257000E550577591DF900376E064076005E064ED
:1025800008702F1226AE74016521703E120DD21212
:10259000269C121F211228657404121CA1E96401F3
:1025A00070057901120E0E7901EEFAEFFB12236B22
:1025B0008018E0640D7013900398E004F0642870B4
:1025C00002E4F07A00E0F9120E8C906182E0A2E65B
:1025D0004003022671E591A2E6400302267175913F
:1025E000BF900376E064057008120DBA120DC68024
:1025F00003120DC0752100120E1AE9900377F079CD
:1026000000120E0E120BBC7A017B00900375E0F9EC
:102610001212BE907803E064427056900520E014D8
:10262000F0704EC2AF12262800782AD0E0F618D0FB
:10263000E0F6E59F5407F87005750DFF8003750DF2
:102640007FC4C0E07829E6F50A08E6550DF50B745D
:102650000B780A121C69D0E0250AF8906270E0A29B
:10266000E740F8E8C333906272F0906270E0D2E025
:10267000F0906181E0A2E35009E5E9A2E35003751F
:10268000E9F7A3E0A2E75009E591A2E750037591AD
:102690007FE508A2E092AF7F08021EB28E828F8390
:1026A000E0F8A3E0C82416F582E438F5832290030D
:1026B000A4E0F875F00BA4C8AAF02AF974A628FEC5
:1026C000740339FF22C0E0C0D0C082C08390618310
:1026D000E0A2E05009E5BFA2E0500375BFFEE0A212
:1026E000E15009E5BFA2E1500375BFFDE0A2E25051
:1026F00009E5BFA2E2500375BFFBE0A2E35009E584
:10270000BFA2E3500375BFF7E0A2E45009E5BFA202
:10271000E4500375BFEFE0A2E55009E5BFA2E55024
:102720000375BFDFE0A2E65009E5BFA2E6500375DE
:10273000BFBFD083D082D0D0D0E032C0E074F212DC
:102740001E53E5A7A2E6500FE5A1A2E6500953A744
:10275000BF75A1BF12278FE5A7A2E5500CE5A1A286
:10276000E5500653A7DF75A1DFE5A7A2E15009E513
:10277000A1A2E1500375A1FDE5A7A2E2500CE5A1DD
:10278000A2E2500653A7FB75A1FB7F01021EB274A3
:10279000F7121D67752101900376E064067015122B
:1027A0000D3C8A828B83A3A3A3A3A3A3E0FAA3E097
:1027B000FB120DA8A2AFE433FED2AF90037CE0641D
:1027C0000170187A207B00900375E0F91213D27A19
:1027D000207B00900375E0F91212C4906182E0D270
:1027E000E6F090051DE0602185C622801690037BEF
:1027F000E064017008E5C654F84405F5C653BEFC14
:102800001225147401652160E4EEA2E092AF7F020C
:10281000021E13FF8E238F24858228858327851827
:1028200082851983E0CEA3E0CF852882852783EBBC
:10283000C9EAC8EDCBECCA75F010C3E833C8E93378
:10284000C9EA33CAEB33CBC3EA9EF526EB9FF525E5
:10285000B35004AB25AA26EC33CCED33CDD5F0DA5A
:10286000AE23AF242274F1121D678A088B098C0AEB
:102870008D0B9081897808121B29740F121CD77850
:102880000C121B4F908189780C121B297808790C47
:1028900012148990817550107808790C121B0178F8
:1028A000081214A94014800E780C7908121B0178C4
:1028B0000C1214A950047901800279007F08021ECD
:1028C0001374ED121D678A088B098C0A8D0B908199
:1028D000897808121B297413121CD7780C121B4F0D
:1028E000908189780C121B29780C79081214894080
:1028F000117808790C121B01AA08AB09AC0AAD0BC0
:102900008022751000751100751200751301781082
:10291000790C121B0178107908121AC8AA10AB1191
:10292000AC12AD137F0C021E139081897808121B24
:102930004F8A828B837808121B3C7F04021E13741B
:10294000F5121D678C828D837808121B4F8A828B4B
:10295000837808121B15122997C3E09CF0A3E09D11
:1029600012298940229081A17808121B4F8A828BFC
:10297000837808121AEE8A828B83A3A3A3A3E02490
:1029800020F0A3E0344EF080A0F088828983C3E079
:102990009420A3E0944E22EA2404F8E43BF98C82CC
:1029A0008D83A3A3A3A3E0FCA3E0FD8882898322F7
:1029B00074F5121D67E9FE9004D3E0FAA3E0FBEE84
:1029C00029F8E433F974DD28F582748039F583E061
:1029D0002AF508A3E03BF5097808121F0E9081DD67
:1029E000121B6D1228147402121CA18A088B098C08
:1029F0000A8D0B74107808121A90AA08AB097F048C
:102A0000021E1374F1121D678A0C8B0D8C0E8D0F34
:102A10007411121CD7121F257411121CD7E0240147
:102A2000F508A3E03400F509E4F50AF50B780C7914
:102A30000812198D90819D7808121B4F780C790827
:102A400012198DAA0CAB0DAC0EAD0F122814740226
:102A5000121CA18B09EA450960047A0180027A0000
:102A6000EC2AFCE43DFD7413121CD7E0F8A3E0F956
:102A7000E8FEE9FFECF8EDF97A717B02121C0088A0
:102A8000088909E4F50AF50B8E828F837808121BFA
:102A90005EECF8EDF97A717B02121C008A088B0952
:102AA00074057808121C788E828F83A3A3A3A3E5F4
:102AB00008F0A3E509F07F08021E13C082C083E975
:102AC000906000F0D083D08222C0E074F2121E53D6
:102AD000A2AFE433FED2AFC2C0E5D1A2E450067586
:102AE000D10F121204EEA2E092AF7F01021EB2C01B
:102AF000E0C0D0E8C0E0A8A8D2AFC2C7E8A2E79281
:102B0000AFD0E0F8D0D0D0E032C0E0C0D0E8C0E034
:102B1000E9C0E0EAC0E0EBC0E0C082C083A2AFE45D
:102B200033F9D2AF9009F1E0F8A3E0687008539A46
:102B3000FBA374018022C2E99009F1E0F874012836
:102B4000F0747128F582E43409F583E0F5C1900949
:102B5000F1E0C394804002E4F0E9A2E092AFD083B8
:102B6000D082D0E0FBD0E0FAD0E0F9D0E0F8D0D0CD
:102B7000D0E032C2AF0200002202011FFFFFFFFFC0
:102B800031B1E1FFC082C083E99017C2F0D083D099
:102B90008202011F74F6121CFBE99002E8F0900318
:102BA00048E0F50875090074027808121C78AA0834
:102BB000AB091213309002E91235479002E912393D
:102BC00034606F900348E075F003A4FAABF0121381
:102BD00030900306123547900306123934700B907B
:102BE00002E91239051213368048900306124899FB
:102BF0007AFF7BFF12113E7A0080198A087509005E
:102C000074027808121C7812434174FF122D47E4B5
:102C1000F0A3F00A900348E0F8EAC39840DD790594
:102C200012081A9002E8E0F91207067AA47B08124B
:102C30000A960243E474F4121CFB8A088B09EB54D5
:102C40008060479002E8E0F91212A68A0A8B0BAE68
:102C50000AAF0BEE4F602A8E828F83E064B0701A49
:102C600012082CE960148E828F83A3A3A3A3E0F93A
:102C7000EE2405FAE43FFB1207FCEEFAEFFB12121A
:102C800094AA08E5096480FB80047A007B00022E88
:102C90009774F2121CFB74FB121C8BEAFEEBFFEE26
:102CA0004F60457403121CD7EEF0A3EFF085188235
:102CB000851983ECF0A3EDF07402121CD7E9F0AA99
:102CC00018AB19120700E9F50870757413121CD7B8
:102CD000E0F50AA3E0F50BE50A450B60638E828FF1
:102CE000831232D0EE4F700575080280537A067B4E
:102CF000001213308A0C8B0DA80CA90DE849700541
:102D0000750813803B88828983E4122D47EEF0A377
:102D1000EF122E63E50AF0A3E50BF09002EC122E01
:102D20005C9002EC6017E0FCA3E08003EAFCEBFDA2
:102D30008C828D83122E5C70F38C828D83123F5CAB
:102D4000A9087405024B19F0A312487BA32274F260
:102D5000121CFB8908890C750D007403780C121C79
:102D600078850C0A850D0B9002EBF09002E9123D7C
:102D700067122E5A602E1213367900801D890C7549
:102D80000D007402780C121C789002E9124200883F
:102D900082F583A3A3E4F0A3F009900348E0F8E9E7
:102DA000C39840D9900348E0FA850AF0A4CAA8F075
:102DB000850BF0A428FB1213308A0C8B0DAE0CAFE0
:102DC0000DEE4F7003022E50900348E0FC850AF090
:102DD000A4CCA8F0850BF0A428FD79001212827C07
:102DE0000080318D0C750D007403780C121C788AEC
:102DF000828B83122E5588828983E4F0122E62A37F
:102E0000A3F0A3F00DEDC3950840D8EE250AFEEF20
:102E1000350BFF0C900348E0F8ECC39850288C0C5D
:102E2000750D007402780C121C789002E9122E5570
:102E3000E82402500109FAE9FB8A828B83EEF0A3B1
:102E4000EFF07D0080BFE5089002EBF07900800292
:102E50007913024B1C124204F922A3A3123909EA86
:102E60004B22A312487BA3A3A32274F4121CFB7968
:102E700000EAA2E0501F7508467509817808121F04
:102E80000E79107C047D007AC47B1712081474023A
:102E9000121CA1E9F980007F04021DCDC082C0830D
:102EA0009002EC123934601C88828983A3A3E06A03
:102EB0007003A3E06B8882898370E8A3A3A3A312A5
:102EC000390580047A007B00022B8D74F2121CFB02
:102ED00074FD121C8BEAFEEBFF851882851983E4D2
:102EE000F0A3F07402121CD77401F012393170147F
:102EF0001209D01213309002EF1235471239317097
:102F00000302305D123647EE2404F50AE43FF50B68
:102F1000850A82F583E024FE603C24FC607424FE74
:102F2000607E24FE7003022FAD24FE7003022FBAD0
:102F300024FE7003022FC724FE7003022FD424FE48
:102F40007003022FE124FC700302300224FE7003A0
:102F500002301A0230561209D09002F1EAF0A3EBC7
:102F6000123069120448E960030230569002F112EF
:102F70001F258E828F83A3A3A3A3A312489985083C
:102F8000828509831239051207E47402121CA1021A
:102F90003056AC18AD19EEFAEFFB120832023025AC
:102FA000AC18AD19EEFAEFFB1208388078AC18AD0A
:102FB00019EEFAEFFB12083E806BAC18AD19EEFA71
:102FC000EFFB120844805EAC18AD19EEFAEFFB126D
:102FD000084A8051AC18AD19EEFAEFFB1208508088
:102FE000447402121CE1880C890D780C121F0E74B7
:102FF00002121CF1EEFAEFFB1208567402121CA129
:103000008023AC18AD19EEFAEFFB12085CE9F870FA
:10301000167402121CD7E4F0803CAC18AD19EEFA1D
:10302000EFFB120862E9F8E8602C8E828F83A3E040
:1030300064146022850A82850B83E09002F1F0859A
:1030400018828519831239059002F2123547E8A3D8
:10305000123069120442EEFAEFFB1207BA74021240
:103060001CD7E0F97403024B19F07CF17D0285084E
:10307000828509831239092274E8121CFB74FA1242
:103080001C8B7404121CD7ECF0A3EDF08A128B1386
:10309000EA2405F50EE43513F50FEA2402F510E4F1
:1030A0003513F511851082F5831239051205388A1A
:1030B0000A8B0B7508007C037D0079007AF17B0296
:1030C000121282E50E2402F516E4350FF51774028C
:1030D000121CE1880C890D780C121F0E850E82855A
:1030E0000F83A3A3A3A3E0F50C750D00780C121FAA
:1030F0000EE50E2405F50CE4350FF50D780C121FC6
:103100000E851682851783123C0C12071E74061258
:103110001CA18A0C8B0DE50C450D700302329980C1
:1031200020851882851983E088828983F0050885C7
:103130001882851983A3E0C0E01232DAD0E0F005EE
:1031400008E50A24FBFAE50B34FFFBC3E5089AE423
:103150009B40030232997E007F0085128285138393
:10316000A3A3A3A3E0F5097809121F12E4F514F54F
:10317000157814121F0E7514EE7515027814121FAF
:103180000E9002EF121F257409121CD7121F25E59D
:103190000A24F9F9AC0CAD0D851082851183123922
:1031A0000512088C7409121CA1E9600302323A85E9
:1031B0000E82850F83A3A3A3A3A3A3A3E0F8900289
:1031C000EEE0687075E0F5148E157814121F0E127B
:1031D0004896850E82850F83A3A3A3A3A3A3A3A3CD
:1031E00012390512127C7402121CA1E9604C900283
:1031F000F2123934703BE4F5147814121F0E7CFF80
:103200007DFF79078510828511831239051207F633
:103210007402121CA112393A7017850E82850F8331
:10322000124A337404121CD71242F4123C3D02328B
:10323000CD850C82850D831232D0A818A919881467
:1032400089157814121F0E7404121CD7121F2585BD
:10325000168285178312353D12072A7404121CA1A9
:103260008A0C8B0DEE4F70030231161232DAEE1219
:1032700032E5123BF3EF1232E5F8A3E03400F9E552
:103280000C450D60030231218882898374FFF005AB
:10329000081232DA74FFF00508E508601A131354B7
:1032A0003F12354D120454E960099002F2123905BB
:1032B0001212EE79008016850E82850F83124A3332
:1032C0007404121CD71242F4123F5C790A023BC606
:1032D000A3A3A3A3E0FEA3E0FF22A8089002F2E0CC
:1032E00028123BF322F00508089002F2E02822742D
:1032F000E8121CFB74FA121C8B7402121CD71235D4
:10330000477404121CD7ECF0A3EDF07402121CD722
:10331000E02405123BDCE0F50CA3E0F50D7402128D
:103320001CD7E02402F510A3E03400F511851082CB
:10333000F583123905120538750800750900EA246D
:10334000FCFEEB34FFFF8008050CE50C7002050D58
:10335000A808C3EE98EF940050030234F9A818A906
:1033600019880E890F780E121F0E85148285158319
:10337000A3A3A3A312489D121F0EE5142405F50E66
:10338000E43515F50F780E121F0E8514828515830E
:1033900012353B12071E7406121CA18A0E8B0FEA0F
:1033A000450F70030234F9EA2404F516E4350FF5ED
:1033B00017851682F583E0F50CA3E0F50D851882DC
:1033C0008519831248998A828B83A3A3A3E0F98588
:1033D000108285118312390512070CE9F509600383
:1033E0000234F97402121CD7123C03F50978091251
:1033F0001F12E4F512F5137812121F0E7512EE75F6
:1034000013027812121F0E9002EF121F257407127A
:103410001CD7121F25EEF9AC0EAD0F851082851159
:103420008312390512088C7409121CA1E9F5096090
:10343000030234F9E508703FE4F50EF50F780E123B
:103440001F0E7CFF7DFF790985108285118312395B
:10345000051207F67402121CA1123C29700D7404A7
:10346000121CD7123530791102352D9002EEE0246E
:10347000029002F2F080149002F2E0FA9002EEE084
:10348000790024025001096A497072A8089002EE7E
:10349000E0FAE82AFAE43400FBEE9AEF9B405A8502
:1034A0001682851783E0C0E09002F31232DFD0E08D
:1034B000F00508851682851783A3E0C0E008900216
:1034C000F31232DFD0E0F005089002EE12489D12B0
:1034D0001F0E124896A808123BD012126A740212EC
:1034E0001CA19002EEE02508F50874FF650C70043D
:1034F00074FF650D6003023348E508601F9002F217
:10350000E0F5F0E5088412354D12045AE96009909F
:1035100002F31239051212EE79008011E5097003E9
:1035200075090A7404121CD7123530A909023BC66A
:10353000123D6BE50CF0A3E50DF022A3A3124B287E
:10354000AA0CAB0D22A3A3EAF0A3EBF0229002F1A8
:10355000F07CF17D02851082851183123909227475
:10356000EC121CFB74FC121C8B12406C7402121CBB
:10357000F11238FF1207248A0C8B0DEA450D7003F7
:10358000023637123647A818A91988108911781001
:10359000121F0E7CFF7DFF790B850882850983123F
:1035A00039051207F67402121CA112373D700C8502
:1035B0000A82850B83123C3A0236448E828F83A3A3
:1035C000A3A3A3E0F5127812121F12E4F512F5136B
:1035D0007812121F0E7512F17513027812121F0E57
:1035E0007810121F0E7409121CD7121F25740912AD
:1035F0001CD7E0F9AC0CAD0D850882850983123922
:103600000512088C7409121CA1E9FE70157CF17D6D
:1036100002850882850983123905120460E9700960
:10362000802074166E70027E009002F2123905122C
:1036300012EEEE7004800B7E01850A82850B8312E8
:103640003F59EEF9023F6EEE2402F508E43FF5091A
:103650002274EC121CFB74FC121C8BEAFEEBFF8C38
:103660000E8D0FEE2405F508E43FF5097402121CD7
:10367000F18508828509831239051207248A0C8B8B
:103680000DEA450D700302372DEE2402F50AE43FE2
:10369000F50BA818A919881089117810121F0E7C33
:1036A000FF7DFF790D1238FF1207F67402121CA17C
:1036B00012373D700B850882850983123C3A807A67
:1036C0008E828F83A3A3A3A3E0F5127812121F1298
:1036D000850882850983A3A3121F257512F175132E
:1036E000027812121F0E7810121F0E7409121CD7C6
:1036F000121F257409121CD7E0F91238FB12088C2E
:103700007409121CA1E9FE700F7CF17D021238FFD2
:10371000120466E97009802074166E70027E0090B3
:1037200002F21239051212EEEE7004800B7E018552
:103730000882850983123F59EEF9023F6E1239441F
:10374000F510A3E0F511EA45112274E8121CFB7490
:10375000FE121C8B8A168B178C148D15EA2405F526
:103760000CE43517F50DEA2402F50EE43517F50FD4
:10377000850E82F5831239051205388A088B097582
:103780000B007C037D0079007AF17B0212128275B6
:103790000A00E50814F5100424FFF508E50934FFD4
:1037A000F50980549002F1E0FA9002EEE0F8EA2880
:1037B000F8E43400F9E50898E50999500D9002F114
:1037C000E0F8E510C3989002EEF0E0F512751300F2
:1037D0007812121F0E1248969002F2E02AFAA3E025
:1037E0003400FB12126A7402121CA19002EEE0F87F
:1037F0009002F1E028F0050A850C82850D83A3A3D1
:1038000012421040030238E09002F1E0C39508E450
:10381000950940030238E0AE0AEE2EFEE433FF12B3
:10382000391FAC18AD191248B1E439FB1207248ACC
:10383000128B13AC12AD13EC4D701B750B011239CA
:103840000F123F5D9002F2122E5C60031212EEA97D
:103850000B7402023BC8851682851783A3A3A3A31A
:10386000E0F50B780B121F12E4F512F51378121223
:103870001F0E7512EE7513027812121F0E9002EFD2
:10388000121F257407121CD7121F25A910850E823E
:10389000850F8312390512088C7409121CA1E9F5F1
:1038A0000B709B9002F212393460030237A4E4F5E6
:1038B00012F5137812121F0E7CFF7DFF790F850E13
:1038C00082850F831239051207F67402121CA112A9
:1038D000393A60030237A412390F123C3E023851C4
:1038E0007CF17D02850E82850F8312390512046CEE
:1038F000E960030238447900023851AC0CAD0D8503
:103900000A82850B8312390922E0FAA3E0FB221216
:10391000391FE0FAA3E0F9EA851482851583228530
:103920000C82850D83E02EF8A3E03FF9888289831D
:10393000229002EF124A37E84922123944F8A3E0F4
:10394000F9E849229002F2EAF0A3EBF09002F2E0EB
:103950002274E8121CFB74FA121C8B7404121CD71C
:103960001235478C168D177404121CD7E02405F508
:103970000EA3E03400F50F7404121CD7E0240212E9
:103980003BDC1239051205388A0A8B0B7F007E005A
:10399000A818A919880889097808121F0E850E82AF
:1039A000850F83A3A3A3A3E0F5088E097808121F4F
:1039B0000EE50E2405F508E4350FF5097808121F09
:1039C0000E850E82850F83A3A3123C0C12071E7472
:1039D00006121CA18A0C8B0D8029123BFDF00F12E0
:1039E0003BFDF00F9002EE123F48121F0E12489658
:1039F000EFF8123BD012126A7402121CA19002EE70
:103A0000E02FFFE50C450D7003023A8C8518828586
:103A1000198312407EA3A3A3E0F985148285158340
:103A200012390512070CE9FEE50C2404F510E43503
:103A30000DF511EE70507404121CD7123C03F508FA
:103A40007808121F12E4F508F5097808121F0E75A0
:103A500008EE7509027808121F0E9002EF121F255A
:103A60007407121CD7121F25E50A24FAF9AC0CAD15
:103A70000D85148285158312390512088C7409127C
:103A80001CA1E9FE6039123C19123F5CEF70030281
:103A90003BB39002F2E0F5F0EF849002F1F07CF19C
:103AA0007D02851482851583123905120472E9603E
:103AB000099002F31239051212EE7900023BC68F0B
:103AC00008EF703BE4F512F5137812121F0E7CFF1D
:103AD0007DFF79118514828515831239051207F649
:103AE0007402121CA1123C297009123C19123C3DAF
:103AF000023BC69002EEE024049002F2F080359082
:103B000002EEE0F89002F2E0FAE82404FCE434006B
:103B1000FDEC6A4D6003023A92E50A24FAFAE50BDD
:103B200034FFFBE50828F8E43400F9EA98EB9950F3
:103B300003023A92851082851183E0C0E09002F37F
:103B4000E02FF8A3E034008882F583D0E0F00F8501
:103B50001082851183A3E0C0E0123BEAD0E0F00FB1
:103B60007402121CE1880889097808121F0E740279
:103B7000121CD7121F25850E82850F8312353B122A
:103B8000072A7404121CA18A0C8B0DEA450D7003E0
:103B90000239DA7402121CD7E0C0E0123BEAD0E02E
:103BA000F00F7402121CD7A3E0C0E0123BEAD0E091
:103BB0000239E2EE70027E0A850E82850F83123C86
:103BC0001F123F5CEEF97406121CA17F10021DCD7E
:103BD0009002F3E028FAA3E03400FB22F514A3E0FE
:103BE0003400F515851482F58322123BEE229002F3
:103BF000F3E02FFAA3E034008A82F58322123BEE31
:103C000074FF22123D6BA3A3A3A3E022124B2885CD
:103C10000E82850F83123909228510828511831245
:103C20004A37851682851783229002F3EAF0A3EBC8
:103C3000F09002F3124A37E84922123F62E8F0A3FB
:103C4000E9F079112274EA121CFB74FE121C8B8AB3
:103C5000088B098C128D13EA2405FEE43509FFACAC
:103C600018AD198E828F831239051207248A0C8BA6
:103C70000DEE2406F50EE43FF50FEA450D70030244
:103C80003D3DE5082402F50AE43509F50B8A828BEF
:103C900083A3A3A3E0A2E550288518828519831287
:103CA00039051208808A108B11EA451160207912BB
:103CB0001238FB851082851183121CF9E9F50C700E
:103CC0007F850E82850F83E0600979528011750C23
:103CD0000E806D850882850983A3A3A3A3E0F9E480
:103CE000F508F5097808121F0E8E828F83A3A3E0D2
:103CF000F5087808121F0E8E828F83A3A3A3121FCC
:103D0000258E828F831248991238FF12089274060A
:103D1000121CA1E9F50C7011850E82850F83E070ED
:103D20002D1238FF12047880257416650C701175F9
:103D30000C007418121CD7123D67E48010750C013A
:103D4000124A2F851282851383E8F0A3E9F0850ECD
:103D500082850F83E0600479008002A90C7402124E
:103D60001CA17F0E021DCD123D6B22E0F8A3E0F5F1
:103D70008388822274EC121CFB74F7121C8B8A0A53
:103D80008B0B8C108D11EA2405FEE4350BFF750CAE
:103D900000AC18AD198E828F831239051207248A60
:103DA000088B09EA45097003023F33E50A2402F54E
:103DB0000A5002050B8A828B83A3A3A3E0A2E550DD
:103DC0002F8518828519831239051208808A0C8B79
:103DD0000DEA450D604F7912AC08AD091238FF8528
:103DE0000C82850D83121CF9E9F50C6003023F3645
:103DF000850A82850B83E0F508A3E0F509AA08FB94
:103E0000120874EA4B70197AFF7BFF120874EA4BB0
:103E10007003023F298A828B83E508F0A3E509F04D
:103E20007508008008750C0E023F3605089002EBFD
:103E3000E0F8E508C3984003023F2985080E750F96
:103E4000007403780E121C788A828B83A3A3E0256A
:103E50000EF8A3E0350F1242FD70D08E828F8312D0
:103E60003F511235478E828F83A3A3123F511235E3
:103E700045EE2404F508E43FF509850882F583E062
:103E800088828983A3A3A3A3F0A3E4F0EE2405F51D
:103E90000EE43FF50F850E82F583123F51A3A3A3D5
:103EA000A31235457512077513007812121F0EEE16
:103EB000FCEFFD7404121CE912126A7402121CA1B8
:103EC000E4F5127812121F0E850882850983E0FC42
:103ED0007D0079171238FF1207F67402121CA174C4
:103EE00007121CD71235477407121CD7E0FA4B6033
:103EF0003D850882850983123F48121F0E850E8278
:103F0000850F8312489912126A7402121CA174025E
:103F1000121CF11238FF12047EE960267407121C8D
:103F2000D71239051212EE8019750C098008750C2C
:103F3000118003750C01124A2F851082851183129E
:103F40003F5CA90C74098028E0F508750900780821
:103F5000221239098882898322123F62E8F0A3E99C
:103F6000F022E0F8A3E0F9850E82850F8322740425
:103F7000121CA17F0C021DCD74EC121CFB12406CB4
:103F8000751000EE2402F50CE43FF50D850C82F56A
:103F9000831239051208748A088B09EA45097003EF
:103FA000024050850A82850B83E064016003024071
:103FB00045AC08AD09AA0AAB0B120868E9606E852A
:103FC00008828509831232D2EE2406F50AE43FF511
:103FD0000B8E828F83A3A3121F258E828F83A3A3B0
:103FE000A3A3121F25850A82850B83121F2579182A
:103FF0008E828F8312407E12390512089274061247
:104000001CA1E9F8741668700B850A82850B83E49D
:10401000F0A38014E860128E828F83123905850E1A
:1040200082850F83EAF0A3EBF088108018780E12D7
:104030001F0EAC08AD09EEFAEFFB12086E74021207
:104040001CA1E9F510AA08AB0912087AE510700E58
:10405000850C82850D83123905120484800974163B
:1040600065107003751000A910023F73EAFEEBFFA4
:104070008C0E8D0FEE2405F50AE43FF50B22124B52
:1040800028850C82850D832274EA121CFB750800BA
:104090007509007E007F00750A00EC2402F510E42B
:1040A0003DF5118035EC65087003ED65096003028C
:1040B000413D88828983A3A3E06A7003A3E06B700B
:1040C0007C88828983A3A3A3A3124A33EE28FEEF40
:1040D00039FFEA28FAEB39FB050A12420D503A85FE
:1040E0000A0C750D007403780C121C7885108285FB
:1040F00011831242001242FD601FE508450970A5B8
:104100008C088D09888289831232D088828983A3A2
:10411000A3E02EFAA3E03F80BEE50AC39402500359
:104120000241FB750800750900EE4F6010EEFAEFD2
:10413000FB1212E88A0E8B0FEA450F700579000218
:1041400041FD750B000241D0850B0C750D00740309
:10415000780C121C78851082851183E0250CF50CF3
:10416000A3E0350DF50DE50C2406F514E4350DF549
:1041700015851482F5831243026042E50C2404F590
:1041800012E4350DF513851282F583121F25E50E15
:104190002508FAE50F3509FB12126A7402121CA1F8
:1041A000851282851383E02508F508A3E03509F51B
:1041B000098514828515831239051212EEE50B600C
:1041C0000D7C087D007900AA0CAB0D121282050B44
:1041D000E50BC3950A50030241488510828511837F
:1041E000124A3388828983A3A3A3A3A3A3E50EF075
:1041F000A3E50F122E63EEF0A3EFF07901023D620A
:1042000012420422E0250CF8A3E0350D229002EBC7
:10421000E0F8E50AC3982274F0121CFB8A0E8B0F9B
:104220008C0A8D0B750D00750C0080507916EE24EC
:1042300006F508E43FF5098E828F83A3A3121F259C
:104240008E828F83A3A3A3A3121F258508828509CD
:1042500083121F25850E82850F83A3A312390512B1
:1042600008927406121CA1E9F50D7416650D706CA8
:10427000850882850983E4F0A3F0050C9002EBE049
:10428000F8E50CC3985066AA0C8A087509007403F7
:104290007808121C78850A82850B83A3A312434CED
:1042A000E8FEE9FF8E828F831243026040EA240118
:1042B000F508E43400F5099002EBE065087002E5CA
:1042C00009601488828983A3A3A3A3A3A3A3A31231
:1042D0003934600302422C791802422EE9609B12A5
:1042E0004A2F7410121CD71242F4123F5CA90D7FA2
:1042F00008021DCDE0FAA3E0F5838A8222F98882C4
:104300008983124B28EC4D2274F6121CFB7C008032
:10431000010C900348E0F8ECC398501E8C08750916
:104320000074027808121C78124341E06A7003A3FB
:10433000E06B70DDE8FAE9FB80047A007B00024361
:10434000E49002E912434C8882898322E02508F830
:10435000A3E03509F92274F2121CFB8A088B097557
:104360000A0080278E828F83A3A3A3A3122E5A60F4
:10437000031212EE7C087D007900EEFAEFFB1212B8
:10438000828E828F83E4F0A3F0050A12420D50273B
:10439000850A0C750D007403780C121C7885088250
:1043A000850983A3A3E0250CFEA3E0350DFF8E82D3
:1043B0008F8312393470AD85088285098374FFF0CC
:1043C000A3F0024B1C74F6121CFB1208268A828B87
:1043D00083E582458370067A007B008007A3A3A350
:1043E000A31239057F02021DCD74F4121CFB89084B
:1043F0008C828D83E06402703C1249D2FEA3E0F906
:10440000EEF874026870037429697029750A0275E0
:104410000B00780A121F0E7410121CD7121F25747D
:1044200010121CD7121F25A9081211507406121C55
:10443000A1E9F980027901022E9774E8121CFB743D
:10444000FB121C8BE9851882851983F08A168B175D
:10445000ECFEEDFF7510008E828F83A3A3A3E0A274
:10446000E4502D741D121CD71239051208808A825F
:104470008B83E58245837003024871790AEEFCEF75
:10448000FDAA16AB17121CF9E9F510600302487477
:10449000741F121CD7E0F508A3E0F5097421121C63
:1044A000D7E0F50AA3E0F50B7423121CD7E0F50E54
:1044B000A3E0F50F8E828F83E0640260030248124E
:1044C000A3124A33850882850983A38582128583D6
:1044D00013EE2406F50CE43FF50D8882898312481B
:1044E000B1F514E439F5157814121F98010000286D
:1044F0000128144507000228D9450328474500290B
:104500000847012933470229D446032908470429CB
:10451000AC471248E50E450F600302480D850C823A
:10452000850D83124A33E8FAE9FB8A828B83E085A2
:104530000A82850B831248BC121F0E8A828B83A3CA
:10454000E0FCA3E0024796E50E450F600302480D2C
:10455000850A82850B837401F01248A6850882853E
:104560000983F07C007D008E828F83A3A3A3A3E048
:104570002401FAA3E03400FB120724EA4B60408ACE
:10458000828B83E02402F8850A82850B83E028F081
:10459000EA2404F8E43BF988828983E08512828565
:1045A00013831248CA1248BC121F0E8A828B83A33F
:1045B000124899E5082403FAE43509FB02479B8574
:1045C0000A82850B83E02404F07C047D007900AA34
:1045D00012AB13121282024874E50E450F600302FB
:1045E000480D1248A6FEA3E0FF850A82850B83745E
:1045F00004F0EE850882850983F0EF851282851329
:1046000083F07403121CF1EEFAEFFB1207248A0CFC
:104610008B0DEA450D70030246B78A828B83A3A3F4
:104620001232D07401121CE1880E890F780E121F0D
:104630000E7405121CD7121F257CFF7DFF12072A5E
:104640007404121CA18B0FEA450F7033850C828510
:104650000D8312489D121F0E850C82850D83A312B7
:104660001F257C027D007A057B82120526740412C8
:104670001CA1E9700A7401121CD774FFF0A3F08E1C
:10468000828F83E064027039750C02750D00780C1E
:10469000121F0E8E828F83A3124899E5082404FA14
:1046A000E43509FB12126A7402121CA1850A828584
:1046B0000B83E0240280097401121CD7EEF0A3EFF3
:1046C000F07401121CD712488B7401121CD71248C7
:1046D00082024807E50E450F600302480D850C82F3
:1046E000850D83124B21AA16AB17121156850A822B
:1046F000850B837402F0850882850983EAF08512B0
:1047000082851383EB02480AE50E450F60030248D9
:104710000D1248A6F8A3E0F9850A82850B8374027E
:10472000F0E8850882850983F0E985128285138384
:1047300002480A850C82850D83123905121264EA3B
:10474000FAF8C3950EE4950F405CE8650E450F70CE
:10475000047A008021851882851983E0FCE50E2CFF
:10476000FCE4350FFDC3EC98ED94005003E08005A8
:10477000E50ECAC39AFAEA850A82850B83F08A0A93
:10478000750B00780A121F0E850C82850D83E025BB
:104790000EFCA3E0350FFDAA08AB0912126A7402E1
:1047A000121CA1024874751007024874E50E450FEB
:1047B000705B850C82850D83124A33850A82850BD6
:1047C000837407F08882898312488312487BE085CE
:1047D0001282851383F0E82402FAE439FB8A828B83
:1047E0008312488B8A828B83124882A3A3122E6283
:1047F000124890F0E82405F8500109888289831254
:104800004890A31248CAA3A3A3A3F0806775100B16
:104810008062741D121CD71239051208268A828BF9
:1048200083E5824583604A124A33880C890DE84546
:104830000D603E7425121CD7E0F5107810121F127F
:10484000780E121F0E780A121F0E7808121F0E74AF
:1048500007121CD7E0F9EEFCEFFDAA16AB17850C8A
:1048600082850D83121CF97407121CA1E9F51080D2
:104870000375100EA9107405023BC8F08882898365
:10488000A322A3E0850882850983221248D1F02261
:104890001248D1A3A3229002EF124B2822E0F50E7A
:1048A000750F00780E22850C82850D83123D6BE01A
:1048B00022E0FAA3E0F8E4C8F9EA2822F08A828B21
:1048C00083E0F50A750B00780A2212487B1248D162
:1048D00022E0850882850983A3A32274EE121CFBC3
:1048E00074FE121C8B8A088B09ECFEEDFF890AAC62
:1048F00018AD19EEFAEFFB1207248A0C8B0DEA456E
:104900000D70030249C38518828519831239051277
:1049100008268A828B83E582458370030249BEA301
:10492000A3124A33880E890FE8450F70030249BE6F
:104930007414121CD7E0F510A3E0F511E50AF50B8D
:10494000780B121F127419121CD7121F257810121F
:104950001F0E741B121CD7E0F9AC0CAD0DAA08ABEE
:1049600009850E82850F83121CF97405121CA1E9BA
:10497000F50B705274FE650A604C850C82850D83C0
:10498000E0640270411249D2FAA3E0F9EAF8740235
:10499000687003742969702E85108285118312480E
:1049A000B1F50CE439F50D780C121F0EEEFCEFFD9D
:1049B000AA08AB091208AA7402121CA18008750B80
:1049C0000E8003750B01A90B7402121CA17F0A0251
:1049D0001DCDA3124A3788828983E02274F6121C07
:1049E000FB74FE121C8B740C121CD7124A33E88520
:1049F0001882851983F07401121CD7E9F0E4F508D8
:104A0000F5097808121F0E7508027808121F0E7437
:104A100004121CE1880889097808121F0E79FE1219
:104A200008927406121CA17402121CA10243E48EA7
:104A3000828F83124A3722E0F8A3E0F92274F7123A
:104A40001CFBEAFEEBFF890890030612489912113D
:104A500056EA5402600BA908EEFAEFFB1207188021
:104A60000279017F01021DCD74F2121CFB74FE124B
:104A70001C8BEAFEEBFF890A7401650A601474025C
:104A8000650A6003024B177901120AB4E960030258
:104A90004B17EEFAEFFB120874EA4B600312087A28
:104AA000A818A919880889097808121F0E75080224
:104AB0007509007808121F0E750836750981780887
:104AC000121F0E7CFF7DFF7A017B0012071E740609
:104AD000121CA18038850882850983A3A3A3A3A300
:104AE000A3124B21EEFAEFFB12113EE4F50CF50D8B
:104AF000780C121F0E7402121CD7121F257CFF7D2A
:104B0000FFAA08AB0912072A7404121CA18A088B99
:104B100009E508450970BE7402121CA17F06021D3A
:104B2000CD123D6B124B2822E0FCA3E0FD2274F471
:104B3000121CFB8A088B09ECFEEDFF9017C2E0F413
:104B4000604B7A097B0012128EEA4B60408A828B9E
:104B50008374B1F0A3E4124B90F08A828B83A3A3F9
:104B6000E508F0A3E509124B90A3EEF0A3EFF07473
:104B70000C121CD7124A338A828B83A3A3A3A3A34C
:104B8000A3A3123F5C9017C2E0F912129A022E976B
:104B9000F08A828B83A3A3A3A32274F0121CFB745C
:104BA000FA121C8B8909ECFEEDFF7508008A0A8B4E
:104BB0000B780A121F52000410C04DDD4BFB4B1541
:104BC0004C2D4C4B4C634C864C9E4CB24CDC4C57A1
:104BD0004D684D7F4D9A4DC04DC04DF24C740165EE
:104BE000096003024DBB8E828F83E0F8C3940340BB
:104BF00003024DBBE89018AE024D97740265096040
:104C000003024DBB8E828F8312552F9018AFE8F0B0
:104C1000A3E9024D97740165096003024DBB124D73
:104C2000E84003024DBBE8900749024D97740165C7
:104C3000096003024DBB8E828F83E0F8C394054068
:104C400003024DBBE890074A024D97740165096065
:104C500003024DBB124DE84003024DBBE890074BE9
:104C6000024D97741065096003024DBB750A1075FB
:104C70000B00780A121F0E7A4C7B0712126A74021C
:104C8000121CA1024DE1740165096003024DBB12C3
:104C90004DE84003024DBBE890075C024D9774015C
:104CA00065096003024DBB8E828F83E09018B202CB
:104CB0004D97740465096003024DBB8E828F837823
:104CC0000C121B4F9081DD780C1214A95003024D79
:104CD000BB90075E780C121B5E024DE1E960030297
:104CE0004DBB1206BEE9700512110280559007F106
:104CF0008061740765096003024DBB750A06750B78
:104D000000780A121F0E8E828F83A3AC82AD83744B
:104D100002121CE91212707402121CA17C007D00A8
:104D2000AA18AB198E828F83E0F91210AEE9FEC388
:104D3000940A4003024DDE1206BEE9700CEEF91231
:104D4000110879501213A8806D74F22EF582E434A4
:104D500007F5837401804074016509705E124DE8A7
:104D60005059E890075D802F74016509704D8E825F
:104D70008F83E0F8C3940A5042E89018B180187409
:104D800001650970368E828F83E0F874F928C39428
:104D90000A5028E89018B3F0804774016509701B29
:104DA0009007F0E0F88E828F83E09007F0F0E870D3
:104DB00030E06401702B1210F680267508188021EF
:104DC000C3EA9427EB9400501574026509700F8EA6
:104DD000828F83125FFE12053EE9F5088003750895
:104DE00002A908740602510E8E828F83E0F8C394E4
:104DF0000222A9088005740E121CA17F04021DCD99
:104E000074F0121CFB74B1121C8B8C0A8D0B9081F8
:104E1000587420121CF17406121B9E7420121CF18F
:104E20001210AEE9FF745F121CD7E0F509EFC394CE
:104E30000A4003024F8275F006EFA4F50874411290
:104E40001CF17A0E74202508F91213A2E970097476
:104E50004D121CD7E0FE80027E009018AEE0640286
:104E60007005750E018003750E00740865097004E5
:104E70007422800274212508F50D7C1B7D007900C9
:104E80007426121CE91212827426121CF17A1BA9D4
:104E90000D1213A2E9702D7440121CD7E024F9C33F
:104EA000940A5020E50EF50D780D121F127427128A
:104EB0001CF1EEA2E0E433F9AA0AAB0B1205E07490
:104EC00001121CA17C147D007900740C121CE912E3
:104ED0001282740C121CF17A1074242508F9121332
:104EE000A2E970347C1079FF740C121CE91212E2F2
:104EF000E97025741C121CD7AC82AD837A0474252A
:104F00002508F91213A2740C121CF1EEA2E0E4338E
:104F1000F9AA0AAB0B1205C8AC18AD197A0C74705B
:104F20002FF91213A2E97049AA18AB191210DE7FEB
:104F300000EF75F003A4F8A9F0851882851983E5C0
:104F40008228F8E5831256D21258B4601D888289EF
:104F500083A3A3E0F50E750F00780E121F0EAA0AA8
:104F6000AB0B1208987402121CA10FEFC3940440FB
:104F7000C0EEA2E1500C900748E0F9AA0AAB0B1270
:104F8000089E7404650970289018AEE064027020D1
:104F90007A0090075CE060027A01900749E06004C3
:104FA000780480027800E84AF9AA0AAB0B1206944A
:104FB0007900744F02510E74F7121CFB1206BEE901
:104FC000704F9007F1E0640170151211029007F123
:104FD000E4F07C0AFDF97AF27B07121282802A75CE
:104FE0000800A80874F228FEE43407FF8E828F833D
:104FF000E06401700BA9081211088E828F83E4F01F
:105000000508E508C3940A40D979501213A8121074
:10501000F60259F174F0121CFB74F0121C8BEAFEBC
:10502000EBFF8C088D09750A0AE9600C14600914FD
:10503000603B14607D02510A1210F0E9F50AC39436
:105040000A400302510AE5084509700302510A7536
:105050000C06750D00780C121F0EEEFCEFFDAA0871
:10506000AB0912126A7402121CA102510A750C00DB
:10507000750E06750F00780E121F0EEEFCEFFDE5A3
:105080000C75F00EA4F8A9F0746A28FA740739FBBD
:1050900012127C7402121CA1E9700B050CE50CC302
:1050A000940A506680CA850C0AE50AC3940A505ACD
:1050B0008049750C00AC18AD197A1075F006E50C36
:1050C000A42423F91213A2E9701C7C1079FFAA18FA
:1050D000AB191212E2E9700EEEFCEFFDAA18AB1943
:1050E0001205A4E9600B050CE50CC3940A501B8063
:1050F000C4850C0AE50AC3940A500FE50845096007
:1051000009AA08AB09A90A1210EAA90A7410121C0C
:10511000A17F08021DCD74F4121CFB8909750815C6
:1051200074FF6A700374FF6B70277E00AC097A020B
:105130007B00EEF91210CCE960037508000EEEC397
:10514000940A40E8E50960537A1A7B11120AD88064
:105150004A120AA88A0A8B0BAE0AAF0BEE4F6038D0
:105160007C007D00EE2405FAE43FFB8E828F83A352
:10517000A3A3A3E0F91210AEE9F9C3940A500CAC52
:10518000097A027B001210CC750800E509600CEE6C
:10519000FAEFFB12111A8003750814024DF274F233
:1051A000121CFBECFEEDFF750815740E121CD7E007
:1051B000F50AA3E0F50B74FF6A700374FF6B7021AE
:1051C000750900AC0AAD0BEEFAEFFBA9091210D27B
:1051D000E960037508000509E509C3940A503F809A
:1051E000E2120AA88A828B83E5824583602D7C00C7
:1051F0007D00E5822405FAE43583FBA3A3A3A3E0A5
:10520000F91210AEE9F9C3940A5013AC0AAD0BEED3
:10521000FAEFFB1210D27508008003750814A90874
:105220007F06021DCDC082C083900762EAF0A3EB27
:10523000F0900748E0FC7D007A267B0012053E9046
:105240000748E0F9120802025D0B74EE121CFB74B1
:10525000EC121C8B8A088B09EA240CF510E4350942
:10526000F5118A828B83A385820C85830DEA240540
:10527000F50EE43509F50FEA2409F50AE43509F5D8
:105280000BEA2403FEE43509FF8A828B83A3A3E0A3
:1052900024FA700302550E24FD700302542E14707C
:1052A0000302532814601024FD700302541114707B
:1052B000030254660255141260046044E0F58388CA
:1052C0008212552F880C890DE8450D6033851082B8
:1052D000851183E0F50E780E121F12EA240BF58279
:1052E000E43509F583E0F9125FF80A0A0AEFFB8555
:1052F0000C82850D83121CF97401121CA102551435
:10530000850A82850B83121F2590075E121B6D1282
:1053100005DA7402121CA1E97003025514790185A3
:105320000A82850B830254DE750A00850C82850D86
:1053300083E060030253DE850E82850F83E0A2E0E6
:1053400040030253DE9007FC12600760030253DE45
:105350007C0E7D007900AA18AB191212828510828A
:10536000851183125CD6EA4B6010750A06750B0036
:10537000780A121F0EEA2410801B125CD2120AA8AF
:10538000EA4B7003025514750A06750B00780A1271
:105390001F0EEA2405FCE43BFD7402121CE9121204
:1053A0006A7402121CA1850E82850F83E0A2E2506E
:1053B00004D2F08002C2F0A2F0E433F8740C121CA4
:1053C000D7125E861210E4E970117A027B00900712
:1053D00048E0F91212BE7900025516750A151260DE
:1053E0000470030255141255357003025514850CD0
:1053F00082850D83E0FC7901125520121CF9E50A23
:105400007003025514FC7903125CD2125C8D0255B4
:1054100009126004700302551412553570030255C9
:1054200014850C82850D83E0FC79020255067C0010
:105430007D00EA2404FAE43509FB8E828F83E0F9CB
:105440001210AEE9F8C3940A4003025514E508248B
:105450000AFCE43509FD7A0475F006E8A42425F970
:1054600012139C025514125CD290075DE060079005
:1054700018B1E0F9806B9018AEE070047905806196
:10548000120AA88A0C8B0DA80CA90DE8497003021A
:105490005514E82404F50CE439F50D8508828509D6
:1054A00083A3A3A3A3A3A3A3E0A2E05039850C8206
:1054B000850D83E0F508602E850A82850B83A3E0C5
:1054C00054027022740E121CF1E82405FAE439FB30
:1054D000A9081210AEE9700E79038E828F83125CD8
:1054E000D61205D4802EAC0EAD0F850C82850D83AF
:1054F000E0F9125CD21211261260046017125535C1
:1055000060127C007900125520121CF98006125C92
:10551000D21210A879017414121CA17F0A021DCDA9
:105520008E828F83E0FAA3E0FB888285098322E0E4
:10553000F8A3E0F922125C9BF98909E84509227475
:10554000F4121CFB74F2121C8BEAFE8C0B75F00635
:10555000E9A42420F508AC18AD197A0EF91213A2AB
:10556000E970487C0679FFAA18AB191212E2E970BB
:105570003A740C121CD712552FE8F509E50B60059B
:10558000EE42098004EEF45209AA09E86A7001E9C2
:105590006015740C121CD7EAF0A3E4F0AC18AD1936
:1055A0007A0EA90812139C790180027900024DF647
:1055B00074F2121CFB74E6121C8B890A8A088B0990
:1055C000ECFEEDFF740C121CF17A0E75F006E9A4E6
:1055D0002420F91213A2E960030256957C0679FF94
:1055E000740C121CE91212E2E96003025695747001
:1055F000250AF50BAC18AD197A0CF91213A2E96063
:1056000003025691AA18AB191210DEE5084509707D
:105610001D7C0C7900AA18AB191212E2E970727C99
:105620000C7D007900AA18AB191212828051AC18B7
:10563000AD19AA08AB091210D88A0C8B0DA80CA9B9
:105640000DE8497022EE4F604CAC18AD197A007B22
:10565000001210D8EAF8EBF9EA4B603988828983A6
:10566000E508F0A3E509F012570EFAEE6A7001EFB3
:10567000601FEEF04F700888828983E4F0A3F0AADF
:1056800018AB191210DEAC18AD197A0CA90B121355
:105690009C790180027900741A121CA102522074B4
:1056A000F7121CFB7E00EE75F003A4F8A9F0EC28BD
:1056B000F8ED1256D2E06A7003A3E06B7006E8FAC8
:1056C000E9FB800B0EEEC3940440DB7A007B000202
:1056D00059F139F9888289832274F7121CFB7C0006
:1056E000EC75F003A4F8A9F0EA28F8EB1256D2E022
:1056F000F4FEA3E0F4FF88828983EEF0A3EFF012BA
:10570000570EF4F00CECC3940440D50259F1E82490
:1057100002F582E439F583E02274F4121CFB74F480
:10572000121C8BEAFEEBFF8C088D099007FC1260BF
:10573000077050EE4F603FEC4509603A1210F0E9F7
:105740009018B4F0C3940A403A750A007C0679FFB9
:10575000E50A75F00EA4FAABF074642AFA74073BFC
:10576000FB1212E2E97016050AE50AC3940A40DC4E
:105770009018B4740AF07901740C024DF8E50A909F
:1057800018B4F09018B4E0C3940A50EA75F006E03B
:10579000A4FB9007FC1260077063EEFCEFFD7A0E2D
:1057A00074202BF912139C7C0C7D0079FFAA18AB96
:1057B00019121282AC18AD197A0C9018B4E024704A
:1057C000F912139C750A0E750B00780A121F0EEE63
:1057D000FCEFFD9018B4E075F00EA4F8A9F0746425
:1057E00028FA740739FB12126A7402121CA190077E
:1057F000FCE508F0A3E509F07900025778E0C82439
:10580000061258AE60197A1B74212BF912139C12E0
:10581000589A2406F582E438F583E4F0A380D81280
:10582000589A240A1258AE60107A1B74222BF9126F
:10583000139C12589A240A80DB12589A240C12588E
:10584000AE60107A1074232BF912139C12589A240C
:105850000C80C11258A31258AE60307A1074242BF9
:10586000F912139C1258A3F582E438F583E0241052
:10587000FCA3E03400FD7A0475F0069018B4E0A4AF
:105880002425F912139C1258A380899007F0E06038
:105890000312112C1211200257769007FCE0F8A396
:1058A000E0C8229007FCE0F8A3E0C8240822F582B3
:1058B000E438F583125FFEEC4D2274F4121CFB7485
:1058C000F2121C8BEAFEEBFFE9C3940A5004EE4F80
:1058D000700479028034AC18AD197A0E75F006E9BF
:1058E000A42420F91213A2E9F508701C750A0675A4
:1058F0000B00780A121F0E7402121CF1EEFAEFFB75
:1059000012126A7402121CA1A908024DF674F41254
:105910001CFBEAFEEBFF750800750A06750B0078A4
:105920000A121F0EEEFCEFFDE50875F00EA4F8A9B3
:10593000F0746428FA740739FB12127C7402121C8A
:10594000A1E96004A908800B0508E508C3940A4092
:10595000C8790A024DFB74F7121CFB750800E508B4
:1059600075F00EA4F8A9F0746428FE740739FFEEF0
:10597000FCEFFD7A0E75F006E508A42420F9121359
:10598000A2E960297C067D0079FFEEFAEFFB121296
:10599000827C067D0079FFEE2CFAE43FFB12128236
:1059A000EE240CF582E43FF583E4F0A3F00508E56E
:1059B00008C3940A40A89007F0E0600312112C126B
:1059C0001120802D74F7121CFB7E007F007C06796D
:1059D000FFEF75F00EA4FAABF074642AFA74073B7B
:1059E000FB1212E2E970010E0FEFC3940A40DEEEE3
:1059F000F97F01021DCD74F7121CFB7E00EEF91237
:105A00001108E9F90EEEC3940A5003E960EF80E152
:105A100074F3121CFB74CB121C8B89089018B4E031
:105A20006508701B7A017B00900748E0F91212C4E8
:105A30007A027B00900748E0F91212C412113875FF
:105A4000F006E508A4FF74202FFE7427121CF17ADB
:105A50000EEEF91213A2E96003025B187C0679FFCF
:105A60007427121CE91212E2E96003025B187C0E33
:105A70007D0079FF7427121CE91212827C1B7D00C5
:105A800079FF740C121CE91212827C0C7D0079FFE4
:105A9000AA18AB191212827427121CF17A0EEEF9B1
:105AA00012139CE9FE740C121CF17A1B74212FF95D
:105AB00012139CE9F509740C121CF17A1B74222F45
:105AC000F912139CE9F50A740C121CF17A10742374
:105AD0002FF912139CE9F50B740C121CF17A107457
