:020000040000FA
:060000000201070226D1F7
:03002B00022AD5D1
:030053000227473A
:10008300022527E5C754F84401F5C779012200008A
:100093000080FB120086B900030200F1E4792178A5
:1000A30008B800028004F709D8FCE479297802B87B
:1000B30000028004F709D8FCE490028178FF7913E9
:1000C3008002F0A3D8FCD9FA7A7F7B1590013778A8
:1000D3003079048015E493A3AD82AE838A828B8347
:1000E300F0A3AA82AB838D828E83D8E9D9E7758288
:1000F300397583B074031201197582917583007485
:100103000012011975D00075813F751881751902A8
:10011300759F00020096C09FF59FE473D09F22D085
:1001230083D082C09FE493C0E0740193C0E0740263
:1001330093F59F22FF0000B4000028002800283018
:1001430075A000A000A000A00000080008E001F0D6
:10015300001000100010001000100010005000509C
:1001630000500010001000D0070000000000000F36
:100173000001000500307507001000010081FF0039
:10018300000000FFFFFF8806A6068E06CA06FF02D0
:10019300020208025000A0000000E80302FF8101F0
:1001A3000000E981020782010000DA15022A8101B9
:1001B3000000BF02020782010000DB1502EF81018C
:1001C3000000D502020782010000DC1502F1810163
:1001D3000000D702020782010000DD1502F3810847
:1001E3000000D802020782010000DE1502F581013A
:1001F3000000DF15FF0100FF2002FF81010000EC7A
:1002030081020782010000431602F781000000000B
:100213000002178203000006031700360D360D3661
:100223000D360D360D360D360D360D360D360D36B3
:100233000D360D360DDC0FEE0FD60F020202020251
:1002430002020202010D000000100102FF81010001
:1002530000E6810207820100008616021382010074
:100263000040070207820100008716021182010085
:100273000015810207820100008816020F82010027
:1002830000F9800207820100008916020D82010035
:100293000081800207820100008A16020B8201009E
:1002A3000093800207820100008B1602098201007D
:1002B30000A5800207820100008C1602058201005E
:1002C30000B7800207820100008D1602038201003D
:1002D3000007810207820100008E160201820100DD
:1002E300008F1601E8030577100A0AD7233CFFFFA6
:1002F300FF0001307503020106000000000000004A
:1003030000000000000000000000000000000000EA
:100313000000000000FFFF0600800CE8030E094701
:10032300697A6D6F424C452D3132333405125000DA
:100333002003020A000201060302F0FF47697A6DF7
:100343006F20576972656C65737343686172676583
:10035300723E14000044140A436861726163746559
:100363007269737469632031000243686172616367
:10037300746572697374696320320008436861723B
:100383006163746572697374696320330010436831
:100393006172616374657269737469632034000206
:1003A300436861726163746572697374696320354C
:1003B300000243686172616374657269737469638F
:1003C30020360002FF81010000E381020782010061
:1003D30000A217021B820300006D1502FD810100BC
:1003E30000A317020782010000B417021D82010057
:1003F300006E1502FD81010000B51702078201009E
:1004030000C617021F820200006F1502FD81010062
:1004130000C717020782010000D8170221820000DB
:10042300007015021782030000711502FD8101009F
:1004330000D917020782010000EA17022382040091
:1004430000731502FD81010000EB17020782010012
:1004530000FC17022582010000781502FD810100CE
:1004630000FD17120122898F031201229C8F0312B0
:100473000122CD8F03120122079003120122609003
:1004830003120122A79003120122EF90031201220B
:100493001E91031201224D91031201228491031232
:1004A3000122CB9103120122E4910312012239921A
:1004B30003120122529203120122A092031201227B
:1004C300DA920312012224AB0212012227AC021298
:1004D300012260AC0212012283AC0212012295AC0C
:1004E30002120122D3AC021201224FAD02120122E9
:1004F30017AE0212012239AE02120122D0AE02124D
:10050300012222AF0212012253AF0212012260AF75
:1005130002120122CAAF0212012221B002120122E9
:1005230024B0021201225DB00212012260B0021255
:1005330001226AB002120122BEB002120122FFB0F0
:100543000212012232B1021201226FB10212012200
:1005530071B20212012215B3021201227EB30212FA
:100563000122BCB30212012200800312012228805F
:10057300031201225580031201228D8003120122EE
:10058300EB80031201223781031201229E810312A1
:100593000122DE81031201221B82031201224982FE
:1005A30003120122F38203120122FD8203120122AC
:1005B3000A83031201223D8303120122498303129A
:1005C30001226183031201226B8303120122DFAD37
:1005D30003120122EDAD0312012205AE0312012223
:1005E3001CAE03120122E0A6011201228AA7011206
:1005F30001229DA80112012219A90112012237AA81
:100603000112012273AA011201220EAB011201226F
:10061300F2AB01120122BEAC011201224CAE011257
:100623000122BDAE0112012277AF0112012269B08E
:1006330001120122A9B0011201225DB101120122AE
:100643008FB10112012285B301120122C7B3011236
:100653000122E5B3011201224BB4011201221AB5A2
:1006630001120122DEB501120122FDB7011201229E
:10067300C6C302120122B0C4021201225BC50212D8
:100683000122ACC5021201225CC602120122CDC6B0
:1006930002120122B2C702120122E6C7021201228C
:1006A300DFC8021201221CC902120122F8C9021278
:1006B300012237CA0212012253CA02120122F2A3F3
:1006C3000312012276A403120122A1A40312012220
:1006D300BBA503120122F983031201220F84031223
:1006E30001222D84031201223E8503120122488533
:1006F300031201227386031201226A870312012265
:10070300D7870312012237D1021201226DD20212BE
:100713000122A4D202120122FBD20212012210D51D
:10072300021201222A8201120122B682011201223F
:100733001A8401120122268401120122618401120A
:100743000122D08401120122D98501120122E286FD
:1007530001120122A9870112012206890112012235
:10076300248901120122418901120122EE89011219
:1007730001226B8A01120122938A011201225D8DEB
:1007830001120122628D011201227B8F01120122CB
:10079300C98F0112012239900112012277900112AF
:1007A30001225391011201221392011201225F923D
:1007B30001120122629201120122A6920112012268
:1007C300EE92011201222D93011201224F93011285
:1007D3000122839301120122E693011201221CDC00
:1007E300021201222ADC021201227DDC0212012202
:1007F3009CDC02120122E1DC0212012225DE02123C
:100803000122C0DE0212012204DF021201222EDFC6
:10081300021201229DDF02120122E3DF02120122F2
:100823005AE0021201220BE102120122002B0012F4
:100833000122102B00120122B12B001201220D2CD8
:1008430000120122CA2C00120122E62D00120122FD
:10085300182E00120122472E00120122F42F00123B
:1008630001226B3200120122DB3400120122CD354A
:1008730000120122C63600120122CD3800120122D5
:10088300C13B00120122F03C00120122F43E00128F
:1008930001220440001201229341001201228442EA
:1008A30000120122D242001201224143001201220E
:1008B300654300120122B643001201225748001279
:1008C3000122584900120122B94900120122E449C8
:1008D30000120122AA4A0012012256F70212012233
:1008E30060F702120122A5F702120122B9F70212E0
:1008F300012249F80212012282F802120122BDF8F4
:1009030002120122E6F8021201223AF9021201222E
:100913004FF90212012271F90212012286F9021221
:1009230001229AF902120122AFF902120122E9F916
:100933000212012215FA021201225EFA02120122A8
:10094300D0FA0212012213FB021201223DFB021212
:10095300012268FB02120122BF7E00120122888D50
:10096300021201226B8E02120122E68E0212012272
:10097300218F0212012272900212012200910212AF
:1009830001229293021201224494021201225095F1
:1009930002120122C396021201221C9702120122A3
:1009A300C4EE0212012207EF021201228BEF0212A0
:1009B300012262F202120122849F0312012236A055
:1009C3000312012232A10312012271A10312012297
:1009D300CBA103120122EAA5031201224DA60312A1
:1009E3000122EAA6031201221FA7031201224FA725
:1009F300031201228AA703120122AAA703120122CA
:100A03001DE102120122A9E10212012268E202128F
:100A1300012280E3021201229AE5021201223B73B2
:100A2300001201226073001201222D7400120122B0
:100A33000175001201226E7500120122AE750012BB
:100A430001224A76001201227E7700120122597890
:100A530000120122B8780012012244790012012207
:100A6300B279001201223E7A00120122847A001226
:100A73000122F67A00120122887B00120122297CCE
:100A830000120122497C00120122917C00120122F2
:100A9300DA7C00120122F67C001201221C7D001276
:100AA3000122967D00120122A47D00120122337ED1
:100AB300001201229C7E00120122D1E502120122C2
:100AC30056E60212012298E6021201227CE7021284
:100AD3000122E9E7021201222DE80212012271E844
:100AE300021201229EE802120122C6E8021201222A
:100AF300FEE8021201223CE90212012263E902121A
:100B03000122DDE90212012227EA021201220AB8B8
:100B130001120122A9B901120122E1BB0112012232
:100B230035BC0112012260BC011201223CBD01123D
:100B330001226CBD011201229BBD01120122AEBD37
:100B430001120122EFBD011201221CBE011201227A
:100B53006ABE01120122A6BE01120122EBBE0112DE
:100B6300012238BF01120122B2BF01120122F3C1D7
:100B730001120122DDC30112012219C40112012253
:100B8300A8C501120122EDC50112012260C601129E
:100B93000122B5C601120122BAC60112012244C7BD
:100BA3000112012263C80112012274C80112012239
:100BB30085A102120122FEA102120122B8A702128C
:100BC3000122C3A8021201226CAA02120122FAAA6C
:100BD30002120122164B00120122974B001201222E
:100BE300C44B001201220D4C001201220E4D0012C3
:100BF3000122674D00120122E34E00120122654FCC
:100C030000120122804F00120122F14F0012012233
:100C1300AE5000120122715100120122FF51001245
:100C23000122B65200120122C9520012012262535C
:100C330000120122F9530012012220540012012252
:100C4300895400120122D3540012012221550012AB
:100C53000122C65500120122645600120122F156E8
:100C630000120122625700120122A9570012012229
:100C7300015800120122335800120122ED580012CC
:100C83000122F459001201223D5A001201225A5A3C
:100C930000120122795A00120122AC5B00120122D8
:100CA300635C00120122885C001201229D5C001229
:100CB30001220D5D001201224E5D00120122725EBF
:100CC30000120122F35E00120122C59702120122D3
:100CD3001098021201221C9802120122F0980212AB
:100CE30001220799021201224499021201227599E5
:100CF30002120122AD9902120122039A0212012269
:100D0300199A02120122559A02120122689A0212BA
:100D130001228F9A02120122C39A02120122E99B35
:100D230002120122339D021201222F9E021201227E
:100D33004C9F02120122F52A0012012297C80112C8
:100D43000122D2C80112012224CC0112012280CD3A
:100D5300011201223FCE01120122A6D1011201226A
:100D630090D201120122DCD201120122F6D2011229
:100D7300012233D3011201223ED3011201227DD37A
:100D83000112012286D30112012230D40112012261
:100D930007D5011201225BD501120122B8D5011238
:100DA30001222AD601120122BE94011201221D98AA
:100DB30001120122239801120122549F01120122E0
:100DC3005BA301120122DB9603120122B8970312DF
:100DD3000122FC9703120122369803120122CE98B6
:100DE300031201223D9903120122469903120122A3
:100DF3005299031201226C9903120122969903124C
:100E03000122C6990312012214F30212012221F3D3
:100E1300021201223BF3021201226EF3021201229B
:100E2300ACF30212012211F40212012226F402127F
:100E3300012231F4021201223EF40212012255F47E
:100E43000212012263F4021201226EF40212012241
:100E53007AF40212012289F40212012294F402129A
:100E63000122B7F4021201225BF5021201226BF593
:100E73000212012285F502120122A2F502120122B9
:100E8300BDF502120122E2F502120122EDF5021272
:100E9300012202F60212012216F60212012277F64D
:100EA300021201227DF60212012283F602120122AE
:100EB30089F602120122A1F602120122D4F60212CD
:100EC30001220580021201229C8002120122348138
:100ED300021201222482021201225B8202120122E7
:100EE3006E8202120122DC82021201227784021234
:100EF30001229E840212012240850212012275857D
:100F030002120122868502120122FF8502120122AA
:100F130020860212012238860212012290870212D1
:100F23000122998902120122E98B02120122EC8C1F
:100F3300021201223B8D0212012279D701120122F2
:100F430076D80112012261D9011201226BD9011253
:100F530001228DD90112012299D901120122EBDA62
:100F6300011201221ADB011201224ADC01120122C1
:100F73008CDC01120122B8DD011201228EDE011286
:100F83000122E0DE011201223FDF0112012276DF9E
:100F930001120122B1DF011201224CE301120122ED
:100FA30065E301120122E7E301120122F5E30112D5
:100FB30001224AE40112012258E401120122C5E48C
:100FC3000112012237E5011201227DE501120122FE
:100FD300A2F301120122C4F301120122AEF50112A0
:100FE300012253F90112012296FA0112012270FB28
:100FF30001120122B8A703120122DDA70312012265
:101003004EA803120122E2B302120122EBB3021231
:101013000122F4B30212012225B50212012244B7C0
:10102300021201227AB702120122B4B7021201227C
:10103300EAB70212012224B80212012258B802129E
:10104300012284B802120122CDB80212012207B98B
:10105300021201224FB902120122A5B90212012282
:10106300DAB90212012235BA021201226FBA021250
:101073000122C0BA02120122F6BA0212012230BBC7
:10108300021201225EBB0212012281BB0212012263
:10109300ACAE03120122D8AE0312012233AF031206
:1010A30001223DAF031201224DAF03120122F49935
:1010B300031201221B9A03120122469A03120122F0
:1010C3008CB003120122295F0012012280610012F9
:1010D30001223063001201228D63001201228A640F
:1010E300001201220765001201228F6500120122FE
:1010F300B465001201228F680012012203690012F5
:101103000122F26900120122286A001201226B6A8D
:1011130000120122E26B00120122246C0012012250
:101123006D6C00120122D66C00120122F86C0012C1
:101133000122126D00120122306E00120122406E54
:1011430000120122C36F00120122E36F0012012279
:101153001970001201229F7100120122DC7100122A
:10116300012216730012012267EA02120122B7EA72
:1011730002120122F1EB0212012260EC021201229F
:1011830004ED0212012223ED0212012271ED02127B
:101193000122B3ED0212012296B103120122D6B04D
:1011A3000312012215B10312012283B1031201229A
:1011B300CBAF03120122DBAF03120122EDAF031207
:1011C300012236B00312012210AB0312012293ABAA
:1011D30003120122F9AB03120122B2FE0112012212
:1011E300E6FE011201220FFF0112012286FF011206
:1011F3000122F5FF01120122E18703120122048873
:10120300031201227D880312012251890312012254
:10121300238B031201224293031201228D930312A3
:101223000122DE9303120122539403120122B1948B
:1012330003120122F2940312012253950312012295
:10124300BA95031201223796031201225A9603120A
:1012530001227B960312012208AD031201222BAD5A
:101263000312012254AD0312012296AD031201228F
:10127300D7D602120122E1D60212012221D702128D
:1012830001226AD702120122A2D702120122F8D741
:101293000212012215D8021201221ED802120122C3
:1012A30063D8021201228CD802120122A1D80212A1
:1012B300012211D9021201229ED902120122F2D96E
:1012C3000212012215DA0212012294DA0212012219
:1012D300CFDA0212012204DB0212012216DB021210
:1012E300012235DB021201223EDB02120122F0DB76
:1012F300021201226EA903120122BFA903120122C5
:1013030048AA03120122B2AA03120122C99C0312A2
:101313000122F19C03120122E69D031201220B9E7E
:10132300031201229A9E0312012212AC031201221C
:10133300F6A1031201222CA2031201225FA20312BF
:101343000122B8A30312012257AF031201226DAF8A
:101353000312012277AF0312012294FF021201222A
:101363000FBC02120122C9BC0212012204BD0212E7
:10137300012235BD0212012295BD02120122DFBDF9
:101383000212012234BE02120122BFBE0212012246
:10139300B8BF021201222EC102120122BEC10212E3
:1013A300012224C20212012237C2021201221CC3EB
:1013B3000212012266C30212012290FB02120122D1
:1013C300A6FB021201224AFC0212012289FC02122C
:1013D3000122A6FC02120122D7FC0212012224FDE3
:1013E3000212012257FD0212012292FD0212012272
:1013F30087FF0212012206E6011201228EE9011281
:1014030001221DEB0112012274EB0112012293EB65
:101413000112012211EC0112012297ED01120122A6
:101423006AEE0112012224F2011201220CF30112CD
:101433000122B4CA021201221DCD021201223FCFA2
:1014430002120122DFCF02120122B88B0312012202
:101453001B8C03120122388C031201221D8D0312EF
:101463000122838D031201227F8E031201221FB1F9
:1014730003120122D37F0012012265B103E06670DB
:101483001008A3E066700A08A3E066700408A3E0EE
:101493006622C3E7960809E7960809E7960809E76D
:1014A3009622C3E09608A3E09608A3E09608A3E07B
:1014B3009622C008C3E096F50808A3E09642080800
:1014C300A3E096420808A3E09645087001D3D0082C
:1014D30022080808E630E711121A881214EC0808EB
:1014E30008C64480C618181822181818E9799EC629
:1014F30008CAC608CBC608CCC6C370207996CACB27
:10150300CC7019798ECBCC70137986CC700EF980A0
:101513002ACA33CACB33CBCC33CC331930E7F2CC22
:10152300CBCA3350147004EA30E00DE4CA3ACACB94
:101533003BCBCC3CCC500209C3E913C6CC182313D4
:10154300C6CB18C6CA18C6F92212158C20F014305F
:10155300E72B74FFFCFBFA747F8022E4FCFBFA7434
:1015630080801AB48008BC00F2BB00EF800F50EB00
:10157300F9E4C39AFAE49BFBE49CFCE499C6CC1817
:10158300C6CB18C6CA18C6F922E4C9C608CAC60813
:10159300CBC6D3330308CCC63392F0C3947F402E1B
:1015A30094184019C9B90704CACBCC225025C309E2
:1015B300CA33CACB33CBCC33CC33D9F422F4600D4A
:1015C300C9CCC313CB13CBCA13CAD9F6CC22E4FCC0
:1015D300FBFA2214FCFBFA22E626184618461846A4
:1015E30022E72719471947194722181818E608460A
:1015F300087009E626087005E633F4220822191953
:1016030019E70947097009E727097005E733F42249
:101613000922E6084608C3134608336002E633F49A
:1016230022E7094709C3134709336002E733F4226A
:1016330000121615604F1216246012E7548066F6E6
:101643001215ED70111215E4703B090909F4F6182F
:10165300F618F618F62212160170151215DB080893
:101663000860EAE6447FF618768018E4F618F62256
:101673001215DB60161215E47012E4F608F608F68C
:1016830008E65480F609090918181822EAC0E0EBA5
:10169300C0E0ECC0E0EDC0E0E687F0A4FBACF008EE
:1016A300E687F0A42CFCE435F0FA1809E687F0A4E9
:1016B3002C4B60027401CA35F0FCE433FB09E68766
:1016C300F0D2F7A42CCB35F0FC1908E687F0A42B55
:1016D300CC35F0FBE433FD0819E687F0D2E7A42C00
:1016E3004ACB35F0CD3400FC09E687F0D2E7A42DD0
:1016F300CC35F0FDE433FA0918E687F0D2F7A42CD1
:10170300CD35F0CA3400FC08E687F0D2E7D2F7A45F
:101713002ACC35F07A7E20E70B0ACB33CBCD33CD01
:10172300CC33CC33CB3350147004ED30E00ED2F114
:10173300E4CD3DCDCC3CCC3B5005DA05C2F1EB54B6
:101743007FC63308E63392F0FBE73309E733C39AE6
:10175300502D2B70190C0D4C4D70151806E608C34F
:1017630033700D20F10AA2F013F6E418800B402425
:10177300E4F630F002768018F618F618F68024D3D3
:101783003B14501074FFA2F013F6187680E418F699
:1017930018F6800FA2F013F618E63303F618ECF6EA
:1017A30018EDF6D0E0FDD0E0FCD0E0FBD0E0FA226B
:1017B300121615700418181822121624700D74FFCF
:1017C300F61819F61819F61819F622E7548066F672
:1017D3001215DB700F1215E470F014F608F608F614
:1017E30008F680D11215E4700CF608F60876800826
:1017F300E6447F80EC121604700C1215F060BFE60D
:101803005480F6E480BB1215F0700519191980A5F0
:10181300E869700C763F18768018F618F6E8F92216
:10182300E6CDC0E018ECC0E0E633CD33CDD313F6FC
:10183300E719FCE7191933CC33C3947F400ECD9DD0
:10184300502408E65480F6E418F6800FF4043D149F
:10185300501408E6447FF6187680E418F618F6D09C
:10186300E0FCD0E0FD22CCD313CCFD18E4C6CBC002
:10187300E018E4C6CAC0E00808ED08C633E613F66C
:1018830018E433C675F003C3CA97CA09CB97CB19BB
:101893009C40047D08802EBD000302195C16B6FF30
:1018A300050606081618C3CA33CACB33CB33CA2777
:1018B300CA09CB37CB193CC37D08803E187D08206D
:1018C300E75CC633C6CA33CACB33CB33DDF1D5F0BD
:1018D300EB30E77BCA97CA09CB974ACB199C406F79
:1018E3004B7025E620E0218066187D08C3CA97CA9D
:1018F30009CB97CB199CD3C633C6CA33CACB33CBD8
:101903003350C9DDE7D5F0E1D3E4C636C608C636A1
:10191300C608C636C608C636C61818188031C3CAE4
:1019230097CA09CB97CB199CB34097C633C6CA3322
:10193300CACB33CB33DD34D5F02EC6A2E0C640C8C4
:10194300CA27CA09CB37194A70BECB3CB480B90841
:1019530008E63308E633601F181818D0E0FAD0E021
:10196300FBD0E0FCD0E0FD22187D08CA27CA09CBD2
:1019730037CB193CD3808013F618E4B67F11F618E1
:10198300B6FF0EF618C60470D20808768080CAF631
:1019930018F618F680C5080808EAC0E0EBC0E08630
:1019A300F0E7A4FA180986F0E7A42AFA180986F0E2
:1019B300E7A42AFA180986F0E7A42AFA1986F0E7B9
:1019C300A4FBE5F02AFA190886F0E7A42BFBE5F05F
:1019D3003AFA190886F0E7A42BFBE5F03AFA18184F
:1019E3000986F0E7A4C5F02BFBE43AFA1908E7C52A
:1019F300F0C6A426F6E5F03BFBE43AFA1886F0E7D6
:101A0300A4F6E5F00826F6E43B08F6E43A08F6D037
:101A1300E0FBD0E0FA22E4CFC0E0E4CEC0E0E4CDC6
:101A2300C0E0E4CCC0E075F020E626F608E633F625
:101A330008E633F608E633F6181818EC33FCED33F2
:101A4300FDEE33FEEF33FFC3EC9709ED9709EE97F5
:101A530009EF97191919400FFFEC97FC09ED97FD52
:101A630009EE97FE191906D5F0BFECF709EDF70952
:101A7300EEF709EFF7191919D0E0FCD0E0FDD0E03B
:101A8300FED0E0FF22181818E4C396F608E496F691
:101A930008E496F608E496F6226016080808C6C31A
:101AA30013C618C613C618C613C618C613C6D5E080
:101AB300EA227009080808226016181818C6C333EA
:101AC300C608C633C608C633C608C633C6D5E0EA59
:101AD30022E627F60809E637F60809E637F6080985
:101AE300E637F622E026F608A3E036F608A3E0364A
:101AF300F608A3E036F622E026F008A3E036F00865
:101B0300A3E036F008A3E036F022C3E697F608090F
:101B1300E697F60809E697F60809E697F622C3E082
:101B230096F008A3E096F008A3E096F008A3E096E9
:101B3300F022E056F608A3E056F608A3E056F608AE
:101B4300A3E056F622E056F008A3E056F008A3E01F
:101B530056F008A3E056F022E0F608A3E0F608A347
:101B6300E0F608A3E0F622E6F008A3E6F008A3E611
:101B7300F008A3E6F022E0FAA3E0FBA3E0FCA3E075
:101B8300FD22E0F8A3E0F9A3E0FAA3E0FB22E8F0EA
:101B9300A3E9F0A3EAF0A3EBF022CAC0E0E6F0A3C6
:101BA30008DAFAD0E0FA22CAC0E0E0A3C582CCC5C5
:101BB30082C583CDC583F0A3C582CCC582C583CD41
:101BC300C583DAE6D0E0CA22C3E498F8E499F912AF
:101BD3001C0C8026C3E49AFAE49BFBE920E7E91294
:101BE3001C0CE498F8E499F922C3E498F8E499F911
:101BF300121C0CE498F8E499F9C3E49AFAE49BFB09
:101C030022EB20E7CFE920E7E0B90010BB0008E8AA
:101C13008AF084F8AAF022E4FBC8FA22EB70227B54
:101C230010C833C8C933C9335007C39AC3DBF28022
:101C3300069A50012ADBEAC833F4C8C933F4C9FA57
:101C43002275F008E4C833C8C933C933C99AC99B9C
:101C53005004C92AC93BD5F0ECFBC833F4C8E4C926
:101C6300FA22600D08C6A2E713C618C613C6D5E04C
:101C7300F322600C08C6C313C618C613C6D5E0F416
:101C830022700422600D18C6C333C608C633C6D5F6
:101C9300E0F41822251810AF08F518400C15198028
:101CA30008F51840021519D2AF2200C0D02518102C
:101CB300AF08F518500C05198008F51850020519DE
:101CC300D2AFD0D0222518F58210AF08F518400CFA
:101CD30015198008F51840021519D2AF851983220A
:101CE3002518F582E43519F583222518F8E435190A
:101CF300F9222518FAE43519FB222518FCE43519D5
:101D0300FD22E4732518C582C0E0E51934FFC583BD
:101D1300C0E0E518C3958224F810AF0885831985C0
:101D230082188008858319858218D2AFCEF0A3E587
:101D330020F0A37808E608F0A3DEFAEFF0A3E5812C
:101D430024FAF8E608F0A3E608F0A3E608F0A308EF
:101D530008E608F0A3E608F0A315811581D0E0FE9C
:101D6300D0E0F8158115811581E8C0E0EEC0E022CE
:101D73002518C582C0E0E51934FFC583C0E0E51826
:101D8300C3958224F910AF088583198582188008CA
:101D9300858319858218D2AFCEF0A3E520F0A3780E
:101DA30008E608F0A3DEFAEFF0A3E58124FBF8E6EA
:101DB30008F0A3E608F0A30808E608F0A3E608F095
:101DC300A315811581D0E0FED0E0F815811581E8D7
:101DD300C0E0EEC0E022851983851882E0A3FEE00F
:101DE300A3F5207808E0A3F608DFFAE0A3FFE0A359
:101DF300C0E0E0A3C0E0E0A3C0E0E0A3C0E0E0A354
:101E0300C0E010AF08858218858319800885821881
:101E1300858319D2AFD083D08202011F85198385B0
:101E23001882E0A3FEE0A3F5207808E0A3F608DF1C
:101E3300FAE0A3FFE0A3C0E0E0A3C0E0E0A3C0E0BA
:101E4300E0A3C0E010AF0885821885831980088558
:101E53008218858319D2AFD083D08222C0D02518AF
:101E6300C582C0E0E51934FFC583C0E0E518C3951A
:101E73008224F310AF08858319858218800885832F
:101E830019858218D2AFC8F0A3E9F0A3EAF0A3EB57
:101E9300F0A37908E709F0A3D8FAECF0A3EDF0A3D7
:101EA300EEF0A3EFF0A3D0E0F0A3D0E0F0A3D0E0F6
:101EB300F0A3E520F0A3E5F0F0A3228519838518AC
:101EC30082E0C0E0A3E0F9A3E0FAA3E0FBA3780873
:101ED300E0F608A3DFFAE0FCA3E0FDA3E0FEA3E045
:101EE300FFA3E0C0E0A3E0C0E0A3E0F5D0A3E0F5EA
:101EF30020A3E0A3F5F010AF08858319858218802D
:101F030008858319858218D2AFD082D083D0E0F8B8
:101F1300D0E03274048006740280027401C0E0F4DD
:101F230004121CC8D0E0121B9D22740480047402A6
:101F33008000CCC0E0EDC0E0E518C39CCCAD1950E7
:101F4300011D10AF068C188D1980068C188D19D2BF
:101F5300AF121BAAD0E0FDD0E0FC22D083D082E9EF
:101F6300C0E0E493A3C386F0C5F095F0F908E493C9
:101F7300A386F0C5F095F0700BE493A3C3994005D5
:101F8300E9048002A3E475F002A42582F582E5F05A
:101F93003583F583D0E0F9E493A3C0E0E493C0E094
:101FA30022D083D082ECC0E0EDC0E0E493A3FCE454
:101FB30093A3FDED4C600D121FF0EC24FFFCED34F8
:101FC300FFFD80EFE493A3FCE493A3FDED4C600DD0
:101FD30012202FEC24FFFCED34FFFD80EFD0E0FD59
:101FE300D0E0FCE493A3C0E0E493C0E022C0E0C3EC
:101FF300E49396087401939618400FE4936670086F
:1020030008740193661870007019A3A3C3E4939630
:10201300087401939618A3A3400DD0E0D0E0D0E05C
:10202300021FE0A3A3A3A3A3A3D0E022C0E0C0F0B8
:1020330088F0E4936670080874019366187000A82A
:10204300F0A3A3700BD0F0D0E0D0E0D0E0021FE00B
:07205300A3A3D0F0D0E022AE
:10205C0074F6121D73EAFEEBFF8C088D09EE243426
:10206C00F8E43FF9E8FCE9FDEE243512236FFAEEB3
:10207C00243712236FF88508F0A4C885F00A850967
:10208C00F0A4250AF9EA28F8E439F97A257B00123C
:10209C001C0CEA8C828D83F0FA131313541FF8EE88
:1020AC0028F8E43FF9E8245DF582E439F583E0C0D3
:1020BC00E074075AF8D0E0B800028004C313D8FCCF
:1020CC00A2E0EE50082434F582E43F801824361246
:1020DC00236FF5F0EA84A8F0EE28F8E43FF9E82441
:1020EC0038F582E439F583E0F97F03021E1F74F79B
:1020FC00121D73EAFEEBFFEE243412236FC0E0EEE8
:10210C002435F582E43FF583D0E0F08E828F83A3F3
:10211C00A3A3A3A3A3A3C082C0838E828F83A3A3F4
:10212C00A3A3A3E0F8A3E0F9D083D082E0C398F591
:10213C0008A3E099F509EE247F12236F6401703E29
:10214C00EE2480F582E43FF583C082C0838E828FBB
:10215C0083A3A3A3A3A3E0240108A3E03400F9D034
:10216C0083D082E0687003A3E06970127CB17D04B7
:10217C00120C76EE247FF582E43FF583E4F0AC0894
:10218C00AD09EEFAEFFB12205CE9F9122AC77F02C7
:10219C00021E1FC082C083851882851983E0F8A3B4
:1021AC00E0F9C3EA9CEB9D5010C3EC98ED99401BF1
:1021BC00C3EA98EB995014800EC3EA98EB99400748
:1021CC00C3EC98ED994004790180027900D083D05A
:1021DC008222EAC39CFAEB9DFB2274EF121D7390D2
:1021EC000376E064086005E06407702A9061C8E03B
:1021FC0060249003A4E0F4601DE0F875F00BA4C813
:10220C00AAF02AF974A628FE740339FF8E828F83F4
:10221C00A3A3A3E070030222F4906060E0C0E0EEA0
:10222C002468F582E43FF583D0E0F0750C21750D40
:10223C0005750800750900E5D914F50AE5D95403AC
:10224C00F50E60127403650E6043E50A600AEE2415
:10225C006712236F7002807590051CE06401601F8B
:10226C0012236C60047A0480027A00E50AC39AFA9D
:10227C0095E0FB120B208A088B09EA4509700512C0
:10228C000EA4806412236C70048A0C8B0DE50A601A
:10229C0012850C82850D83F50BE5D9F0A3150BE5A2
:1022AC000B70F612236C604474FC250AF50A780C4A
:1022BC00121F1AAC0AA90EEEFAEFFB120D307402C3
:1022CC00121CADE97026AA08AB091212FA793D8EE0
:1022DC00828F83A3A3A3A3E0FA7B00120982EEFAF8
:1022EC00EFFB120C9A120D427900806F7403650E8D
:1022FC006051850A107511007810121F1AAC0CADC4
:10230C000DAA08AB09120CF47402121CADEE246871
:10231C0012236F64807004747F8001E0F50C780CDC
:10232C00121F1EE50EF50C780C121F1EA90AAC0824
:10233C00AD099003A4E0FA7B001209587402121C38
:10234C00AD8013900376E06408600BAC0CAD0DEE21
:10235C00FAEFFB120DBA120EB079017F0A021E1FA2
:10236C00EE2483F582E43FF583E02274F2121D73B0
:10237C0074FC121C97EAFEEBFF8909A2AFE433F55B
:10238C0008C2AF022441E0601B780C121F1AAC0B80
:10239C00A90EEEFAEFFB120D2A7402121CAD740496
:1023AC00250BF50B7401250BF5D9850ED9E50B60C2
:1023BC0018F50A850C82850D83E0F5D9A385820C6E
:1023CC0085830D150AE50A70EA75E195EE2463F82C
:1023DC00E43FF97A007B00A2AFE433F50BC2AF887F
:1023EC00828983E0FCA3E0FDEC4D603A888289830E
:1023FC00E0FAA3E0FB8A828B83E0FCA3E0FD8882F9
:10240C008983ECF0A3EDF08A828B83E4F0A3F0884F
:10241C00828983E0FCA3E0FDEC4D700A88828983FD
:10242C00A3A3E4F0A3F0E50BA2E092AF1212FA9092
:10243C0004B8E004F0EE246312236FF8A3E0F9E88B
:10244C00496064EE246312236F2402F8A3E0340085
:10245C00F988828983E5822402F50CE43583F50D35
:10246C00E0F50BA3E0F50EEE246212236F6401700D
:10247C00369061D0E0F812236C60047C0480027CFE
:10248C00007480C398FA95E0FBE50B2CF8E434005B
:10249C00F9E82402F8500109C3EA98EB99A2D26535
:1024AC00D03340030223929004B8E0604D9004B9FD
:1024BC00E0F89004B8E0C398500C74026509703AC7
:1024CC009004BAE060348E828F83A3A3A3A3E0852B
:1024DC0018828519831225167402121CE3E8122542
:1024EC00169004B7E028F07402121CFDAA18AB1960
:1024FC0079011209AC9004B8E4F0E508A2E092AFBF
:10250C007404121CAD7F07021E1FF0A3E4F09004AC
:10251C00B8E0F8228521878522C622C0E074EB1230
:10252C001E5FA2AFE433F508C2AF759B00906182C9
:10253C00E0A2E05030E591A2E0502A7591FE7401C2
:10254C00652170211226BA120DFC1226A8121F2D1D
:10255C001228717404121CADE96401700579011222
:10256C000E381221E6906182E0A2E5505DE591A261
:10257C00E550577591DF900376E064076005E064E1
:10258C0008702F1226BA74016521703E120DFC12D0
:10259C0026A8121F2D1228717404121CADE96401B7
:1025AC0070057901120E387901EEFAEFFB122377E0
:1025BC008018E0640D7013900398E004F0642870A8
:1025CC0002E4F07A00E0F9120EB6906182E0A2E625
:1025DC00400302267DE591A2E6400302267D75911B
:1025EC00BF900376E064057008120DE4120DF080C4
:1025FC0003120DEA752100120E44E9900377F0796D
:10260C0000120E38120BE67A017B00900375E0F98C
:10261C001212CA907803E064427056900520E014C0
:10262C00F0704EC2AF12263400782AD0E0F618D0E3
:10263C00E0F6E59F5407F87005750DFF8003750DE6
:10264C007FC4C0E07829E6F50A08E6550DF50B7451
:10265C000B780A121C75D0E0250AF8906270E0A283
:10266C00E740F8E8C333906272F0906270E0D2E019
:10267C00F0906181E0A2E35009E5E9A2E350037513
:10268C00E9F7A3E0A2E75009E591A2E750037591A1
:10269C007FE508A2E092AF7F08021EBE8E828F8378
:1026AC00E0F8A3E0C82416F582E438F58322900301
:1026BC00A4E0F875F00BA4C8AAF02AF974A628FEB9
:1026CC00740339FF22C0E0C0D0C082C08390618304
:1026DC00E0A2E05009E5BFA2E0500375BFFEE0A206
:1026EC00E15009E5BFA2E1500375BFFDE0A2E25045
:1026FC0009E5BFA2E2500375BFFBE0A2E35009E578
:10270C00BFA2E3500375BFF7E0A2E45009E5BFA2F6
:10271C00E4500375BFEFE0A2E55009E5BFA2E55018
:10272C000375BFDFE0A2E65009E5BFA2E6500375D2
:10273C00BFBFD083D082D0D0D0E032C0E074F212D0
:10274C001E5FE5A7A2E6500FE5A1A2E6500953A72C
:10275C00BF75A1BF12279BE5A7A2E5500CE5A1A26E
:10276C00E5500653A7DF75A1DFE5A7A2E15009E507
:10277C00A1A2E1500375A1FDE5A7A2E2500CE5A1D1
:10278C00A2E2500653A7FB75A1FB7F01021EBE748B
:10279C00F7121D73752101900376E0640670151213
:1027AC000D668A828B83A3A3A3A3A3A3E0FAA3E061
:1027BC00FB120DD2A2AFE433FED2AF90037CE064E7
:1027CC000170187A207B00900375E0F91213DE7A01
:1027DC00207B00900375E0F91212D0906182E0D258
:1027EC00E6F090051DE0602185C622801690037BE3
:1027FC00E064017008E5C654F84405F5C653BEFC08
:10280C001225207401652160E4EEA2E092AF7F02F4
:10281C00021E1F008E238F2485822885832785180E
:10282C0082851983E0CEA3E0CF852882852783EBB0
:10283C00C9EAC8EDCBECCA75F010C3E833C8E9336C
:10284C00C9EA33CAEB33CBC3EA9EF526EB9FF525D9
:10285C00B35004AB25AA26EC33CCED33CDD5F0DA4E
:10286C00AE23AF242274F1121D738A088B098C0AD3
:10287C008D0B9081B37808121B35740F121CE37802
:10288C000C121B5B9081B3780C121B357808790CF9
:10289C0012149590816B50107808790C121B0D78DE
:1028AC00081214B54014800E780C7908121B0D78A0
:1028BC000C1214B550047901800279007F08021EB5
:1028CC001F74ED121D738A088B098C0A8D0B908175
:1028DC00B37808121B357413121CE3780C121B5BB3
:1028EC009081B3780C121B35780C79081214954032
:1028FC00117808790C121B0DAA08AB09AC0AAD0BA8
:10290C008022751000751100751200751301781076
:10291C00790C121B0D78107908121AD4AA10AB116D
:10292C00AC12AD137F0C021E1F9081B37808121BE2
:10293C005B8A828B837808121B487F04021E1F74EB
:10294C00F5121D738C828D837808121B5B8A828B27
:10295C00837808121B211229A3C3E09CF0A3E09DED
:10296C0012299540229081977808121B5B8A828BE2
:10297C00837808121AFA8A828B83A3A3A3A3E02478
:10298C0020F0A3E0344EF080A0F088828983C3E06D
:10299C009420A3E0944E22EA2404F8E43BF98C82C0
:1029AC008D83A3A3A3A3E0FCA3E0FD8882898322EB
:1029BC0074F5121D73E9FE9004D3E0FAA3E0FBEE6C
:1029CC0029F8E433F974C928F582748039F583E069
:1029DC002AF508A3E03BF5097808121F1A9081D359
:1029EC00121B791228207402121CAD8A088B098CD8
:1029FC000A8D0B74107808121A9CAA08AB097F0474
:102A0C00021E1F74F1121D738A0C8B0D8C0E8D0F10
:102A1C007411121CE3121F317411121CE3E0240117
:102A2C00F508A3E03400F509E4F50AF50B780C7908
:102A3C00081219999081777808121B5B780C790829
:102A4C00121999AA0CAB0DAC0EAD0F122820740202
:102A5C00121CAD8B09EA450960047A0180027A00E8
:102A6C00EC2AFCE43DFD7413121CE3E0F8A3E0F93E
:102A7C00E8FEE9FFECF8EDF97A717B02121C0C8888
:102A8C00088909E4F50AF50B8E828F837808121BEE
:102A9C006AECF8EDF97A717B02121C0C8A088B092E
:102AAC0074057808121C848E828F83A3A3A3A3E5DC
:102ABC0008F0A3E509F07F08021E1FC082C083E95D
:102ACC00906000F0D083D08222C0E0C0D0E8C0E09B
:102ADC00A8A8D2AFC2C7E8A2E792AFD0E0F8D0D096
:102AEC00D0E032C2AF0200002202011FFFFFFFFF45
:102AFC00FFFFFFFFC082C083E9901642F0D083D065
:102B0C008202011F74F6121D07E99002E8F090038F
:102B1C0048E0F50875090074027808121C84AA08AC
:102B2C00AB0912133C9002E91234C39002E912383B
:102B3C00B0606F900348E075F003A4FAABF0121389
:102B4C003C9003061234C39003061238B0700B90FD
:102B5C0002E912388112134280489003061248157C
:102B6C007AFF7BFF1211687A0080198A08750900B8
:102B7C0074027808121C841242BD74FF122CC3E438
:102B8C00F0A3F00A900348E0F8EAC39840DD790519
:102B9C001208449002E8E0F91207307ACE7B081252
:102BAC000AC002436074F4121D078A088B09EB54A7
:102BBC008060479002E8E0F91212B28A0A8B0BAEE1
:102BCC000AAF0BEE4F602A8E828F83E064B0701ACE
:102BDC00120856E960148E828F83A3A3A3A3E0F995
:102BEC00EE2405FAE43FFB120826EEFAEFFB121274
:102BFC00A0AA08E5096480FB80047A007B00022E01
:102C0C001374F2121D0774FB121C97EAFEEBFFEE15
:102C1C004F60457403121CE3EEF0A3EFF0851882AD
:102C2C00851983ECF0A3EDF07402121CE3E9F0AA11
:102C3C0018AB1912072AE9F50870757413121CE306
:102C4C00E0F50AA3E0F50BE50A450B60638E828F75
:102C5C008312324CEE4F700575080280537A067B56
:102C6C000012133C8A0C8B0DA80CA90DE8497005B9
:102C7C00750813803B88828983E4122CC3EEF0A381
:102C8C00EF122DDFE50AF0A3E50BF09002EC122D0C
:102C9C00D89002EC6017E0FCA3E08003EAFCEBFDAB
:102CAC008C828D83122DD870F38C828D83123ED83A
:102CBC00A9087405024A95F0A31247F7A32274F2EF
:102CCC00121D078908890C750D007403780C121CF1
:102CDC0084850C0A850D0B9002EBF09002E9123CF6
:102CEC00E3122DD6602E1213427900801D890C75CB
:102CFC000D007402780C121C849002E912417C883D
:102D0C0082F583A3A3E4F0A3F009900348E0F8E96B
:102D1C00C39840D9900348E0FA850AF0A4CAA8F0F9
:102D2C00850BF0A428FB12133C8A0C8B0DAE0CAF58
:102D3C000DEE4F7003022DCC900348E0FC850AF099
:102D4C00A4CCA8F0850BF0A428FD790012128E7C7F
:102D5C000080318D0C750D007403780C121C848A64
:102D6C00828B83122DD188828983E4F0122DDEA30D
:102D7C00A3F0A3F00DEDC3950840D8EE250AFEEFA5
:102D8C00350BFF0C900348E0F8ECC39850288C0CE2
:102D9C00750D007402780C121C849002E9122DD16E
:102DAC00E82402500109FAE9FB8A828B83EEF0A336
:102DBC00EFF07D0080BFE5089002EBF07900800217
:102DCC007913024A98124180F922A3A3123885EA9A
:102DDC004B22A31247F7A3A3A32274F4121D077965
:102DEC0000EAA2E0501F75084C7509817808121F83
:102DFC001A79107C047D007A447B1612083E74020A
:102E0C00121CADE9F980007F04021DD9C082C08379
:102E1C009002EC1238B0601C88828983A3A3E06A0C
:102E2C007003A3E06B8882898370E8A3A3A3A31229
:102E3C00388180047A007B00022B0974F2121D0782
:102E4C0074FD121C97EAFEEBFF851882851983E44A
:102E5C00F0A3F07402121CE37401F01238AD70147C
:102E6C001209FA12133C9002EF1234C31238AD70EF
:102E7C0003022FD91235C3EE2404F50AE43FF50BF7
:102E8C00850A82F583E024FE603C24FC607424FEF9
:102E9C00607E24FE7003022F2924FE7003022F365D
:102EAC0024FE7003022F4324FE7003022F5024FED5
:102EBC007003022F5D24FC7003022F7E24FE70032E
:102ECC00022F96022FD21209FA9002F1EAF0A3EB2C
:102EDC00122FE5120472E96003022FD29002F11254
:102EEC001F318E828F83A3A3A3A3A3124815850839
:102EFC008285098312388112080E7402121CAD02ED
:102F0C002FD2AC18AD19EEFAEFFB12085C022FA110
:102F1C00AC18AD19EEFAEFFB1208628078AC18AD64
:102F2C0019EEFAEFFB120868806BAC18AD19EEFACB
:102F3C00EFFB12086E805EAC18AD19EEFAEFFB12C7
:102F4C0008748051AC18AD19EEFAEFFB12087A80B8
:102F5C00447402121CED880C890D780C121F1A7423
:102F6C0002121CFDEEFAEFFB1208807402121CAD6B
:102F7C008023AC18AD19EEFAEFFB120886E9F87055
:102F8C00167402121CE3E4F0803CAC18AD19EEFA96
:102F9C00EFFB12088CE9F8E8602C8E828F83A3E09B
:102FAC0064146022850A82850B83E09002F1F0851F
:102FBC0018828519831238819002F21234C3E8A367
:102FCC00122FE512046CEEFAEFFB1207E4740212F6
:102FDC001CE3E0F97403024A95F07CF17D0285084C
:102FEC00828509831238852274E8121D0774FA123F
:102FFC001C977404121CE3ECF0A3EDF08A128B13F3
:10300C00EA2405F50EE43513F50FEA2402F510E475
:10301C003513F511851082F5831238811205628AF9
:10302C000A8B0B7508007C037D0079007AF17B021A
:10303C0012128EE50E2402F516E4350FF517740204
:10304C00121CED880C890D780C121F1A850E8285C6
:10305C000F83A3A3A3A3E0F50C750D00780C121F2E
:10306C001AE50E2405F50CE4350FF50D780C121F3E
:10307C001A851682851783123B881207487406122C
:10308C001CAD8A0C8B0DE50C450D700302321580BE
:10309C0020851882851983E088828983F00508854C
:1030AC001882851983A3E0C0E0123256D0E0F005F7
:1030BC0008E50A24FBFAE50B34FFFBC3E5089AE4A8
:1030CC009B40030232157E007F008512828513839C
:1030DC00A3A3A3A3E0F5097809121F1EE4F514F5C8
:1030EC00157814121F1A7514EE7515027814121F28
:1030FC001A9002EF121F317409121CE3121F31E5F2
:10310C000A24F9F9AC0CAD0D8510828511831238A7
:10311C00811208B67409121CADE960030231B68540
:10312C000E82850F83A3A3A3A3A3A3A3E0F890020D
:10313C00EEE0687075E0F5148E157814121F1A12F3
:10314C004812850E82850F83A3A3A3A3A3A3A3A3D5
:10315C001238811212887402121CADE9604C900274
:10316C00F21238B0703BE4F5147814121F1A7CFF7D
:10317C007DFF790785108285118312388112082012
:10318C007402121CAD1238B67017850E82850F832F
:10319C001249AF7404121CE3124270123BB9023292
:1031AC0049850C82850D8312324CA818A9198814F4
:1031BC0089157814121F1A7404121CE3121F31851E
:1031CC0016828517831234B91207547404121CAD7D
:1031DC008A0C8B0DEE4F7003023092123256EE12A7
:1031EC003261123B6FEF123261F8A3E03400F9E563
:1031FC000C450D600302309D8882898374FFF005B5
:10320C000812325674FFF00508E508601A131354BF
:10321C003F1234C912047EE960099002F21238811F
:10322C001212FA79008016850E82850F831249AF2F
:10323C007404121CE3124270123ED8790A023B420B
:10324C00A3A3A3A3E0FEA3E0FF22A8089002F2E050
:10325C0028123B6F22F00508089002F2E028227435
:10326C00E8121D0774FA121C977402121CE3123434
:10327C00C37404121CE3ECF0A3EDF07402121CE313
:10328C00E02405123B58E0F50CA3E0F50D74021296
:10329C001CE3E02402F510A3E03400F51185108244
:1032AC00F583123881120562750800750900EA244D
:1032BC00FCFEEB34FFFF8008050CE50C7002050DDD
:1032CC00A808C3EE98EF94005003023475A818A90F
:1032DC0019880E890F780E121F1A85148285158392
:1032EC00A3A3A3A3124819121F1AE5142405F50E63
:1032FC00E43515F50F780E121F1A85148285158387
:10330C001234B71207487406121CAD8A0E8B0FEAE2
:10331C00450F7003023475EA2404F516E4350FF5F5
:10332C0017851682F583E0F50CA3E0F50D85188260
:10333C008519831248158A828B83A3A3A3E0F98590
:10334C001082851183123881120736E9F509600362
:10335C000234757402121CE3123B7FF509780912D2
:10336C001F1EE4F512F5137812121F1A7512EE7562
:10337C0013027812121F1A9002EF121F31740712E7
:10338C001CE3121F31EEF9AC0EAD0F8510828511C6
:10339C00831238811208B67409121CADE9F5096064
:1033AC0003023475E508703FE4F50EF50F780E1244
:1033BC001F1A7CFF7DFF79098510828511831238D5
:1033CC00811208207402121CAD123BA5700D7404FE
:1033DC00121CE31234AC79110234A99002EEE024F1
:1033EC00029002F2F080149002F2E0FA9002EEE009
:1033FC00790024025001096A497072A8089002EE03
:10340C00E0FAE82AFAE43400FBEE9AEF9B405A8586
:10341C001682851783E0C0E09002F312325BD0E095
:10342C00F00508851682851783A3E0C0E00890029A
:10343C00F312325BD0E0F005089002EE124819123C
:10344C001F1A124812A808123B4C12127674021260
:10345C001CAD9002EEE02508F50874FF650C7004B5
:10346C0074FF650D60030232C4E508601F9002F220
:10347C00E0F5F0E508841234C9120484E96009907F
:10348C0002F31238811212FA79008011E5097003E7
:10349C0075090A7404121CE31234ACA909023B42EC
:1034AC00123CE7E50CF0A3E50DF022A3A3124AA40D
:1034BC00AA0CAB0D22A3A3EAF0A3EBF0229002F12D
:1034CC00F07CF17D0285108285118312388522747F
:1034DC00EC121D0774FC121C97123FE87402121CAC
:1034EC00FD12387B12074E8A0C8B0DEA450D7003CA
:1034FC000235B31235C3A818A91988108911781090
:10350C00121F1A7CFF7DFF790B85088285098312B7
:10351C0038811208207402121CAD1236B9700C8559
:10352C000A82850B83123BB60235C08E828F83A331
:10353C00A3A3A3E0F5127812121F1EE4F512F513E3
:10354C007812121F1A7512F17513027812121F1AC3
:10355C007810121F1A7409121CE3121F317409120D
:10356C001CE3E0F9AC0CAD0D85088285098312389B
:10357C00811208B67409121CADE9FE70157CF17D40
:10358C000285088285098312388112048AE9700940
:10359C00802074166E70027E009002F21238811236
:1035AC0012FAEE7004800B7E01850A82850B831261
:1035BC003ED5EEF9023EEAEE2402F508E43FF509A9
:1035CC002274EC121D0774FC121C97EAFEEBFF8CA4
:1035DC000E8D0FEE2405F508E43FF5097402121C5C
:1035EC00FD85088285098312388112074E8A0C8B5F
:1035FC000DEA450D70030236A9EE2402F50AE43FEC
:10360C00F50BA818A919881089117810121F1A7CAB
:10361C00FF7DFF790D12387B1208207402121CAD4D
:10362C001236B9700B850882850983123BB6807AF5
:10363C008E828F83A3A3A3A3E0F5127812121F1E10
:10364C00850882850983A3A3121F317512F17513A6
:10365C00027812121F1A7810121F1A7409121CE326
:10366C00121F317409121CE3E0F91238771208B6F4
:10367C007409121CADE9FE700F7CF17D0212387BCF
:10368C00120490E97009802074166E70027E00900E
:10369C0002F21238811212FAEE7004800B7E018550
:1036AC000882850983123ED5EEF9023EEA1238C033
:1036BC00F510A3E0F511EA45112274E8121D077408
:1036CC00FE121C978A168B178C148D15EA2405F59F
:1036DC000CE43517F50DEA2402F50EE43517F50F59
:1036EC00850E82F5831238811205628A088B097562
:1036FC000B007C037D0079007AF17B0212128E752F
:10370C000A00E50814F5100424FFF508E50934FF58
:10371C00F50980549002F1E0FA9002EEE0F8EA2804
:10372C00F8E43400F9E50898E50999500D9002F198
:10373C00E0F8E510C3989002EEF0E0F51275130076
:10374C007812121F1A1248129002F2E02AFAA3E021
:10375C003400FB1212767402121CAD9002EEE0F8EB
:10376C009002F1E028F0050A850C82850D83A3A355
:10377C0012418C400302385C9002F1E0C39508E4DE
:10378C009509400302385CAE0AEE2EFEE433FF12BC
:10379C00389BAC18AD1912482DE439FB12074E8A30
:1037AC00128B13AC12AD13EC4D701B750B01123850
:1037BC008B123ED99002F2122DD860031212FAA984
:1037CC000B7402023B44851682851783A3A3A3A323
:1037DC00E0F50B780B121F1EE4F512F5137812129C
:1037EC001F1A7512EE7513027812121F1A9002EF3F
:1037FC00121F317407121CE3121F31A910850E829F
:10380C00850F831238811208B67409121CADE9F5C4
:10381C000B709B9002F21238B06003023720E4F573
:10382C0012F5137812121F1A7CFF7DFF790F850E8B
:10383C0082850F831238811208207402121CAD127B
:10384C0038B6600302372012388B123BBA0237CDE0
:10385C007CF17D02850E82850F83123881120496CD
:10386C00E960030237C079000237CDAC0CAD0D8591
:10387C000A82850B8312388522E0FAA3E0FB221220
:10388C00389BE0FAA3E0F9EA85148285158322853A
:10389C000C82850D83E02EF8A3E03FF988828983A2
:1038AC00229002EF1249B3E849221238C0F8A3E083
:1038BC00F9E849229002F2EAF0A3EBF09002F2E070
:1038CC002274E8121D0774FA121C977404121CE37C
:1038DC001234C38C168D177404121CE3E02405F506
:1038EC000EA3E03400F50F7404121CE3E024021262
:1038FC003B581238811205628A0A8B0B7F007E00BE
:10390C00A818A919880889097808121F1A850E8227
:10391C00850F83A3A3A3A3E0F5088E097808121FD3
:10392C001AE50E2405F508E4350FF5097808121F81
:10393C001A850E82850F83A3A3123B881207487445
:10394C0006121CAD8A0C8B0D8029123B79F00F12DC
:10395C003B79F00F9002EE123EC4121F1A1248125D
:10396C00EFF8123B4C1212767402121CAD9002EE60
:10397C00E02FFFE50C450D7003023A08851882858F
:10398C001983123FFAA3A3A3E0F98514828515834A
:10399C00123881120736E9FEE50C2404F510E435E3
:1039AC000DF511EE70507404121CE3123B7FF508F8
:1039BC007808121F1EE4F508F5097808121F1A750D
:1039CC0008EE7509027808121F1A9002EF121F31C7
:1039DC007407121CE3121F31E50A24FAF9AC0CAD82
:1039EC000D8514828515831238811208B67409125C
:1039FC001CADE9FE6039123B95123ED8EF70030204
:103A0C003B2F9002F2E0F5F0EF849002F1F07CF1A4
:103A1C007D0285148285158312388112049CE9601D
:103A2C00099002F31238811212FA7900023B428F8C
:103A3C0008EF703BE4F512F5137812121F1A7CFF95
:103A4C007DFF791185148285158312388112082027
:103A5C007402121CAD123BA57009123B95123BB9B6
:103A6C00023B429002EEE024049002F2F08035908A
:103A7C0002EEE0F89002F2E0FAE82404FCE43400F0
:103A8C00FDEC6A4D6003023A0EE50A24FAFAE50BE6
:103A9C0034FFFBE50828F8E43400F9EA98EB995078
:103AAC0003023A0E851082851183E0C0E09002F388
:103ABC00E02FF8A3E034008882F583D0E0F00F8586
:103ACC001082851183A3E0C0E0123B66D0E0F00FBA
:103ADC007402121CED880889097808121F1A7402E6
:103AEC00121CE3121F31850E82850F831234B7121C
:103AFC0007547404121CAD8A0C8B0DEA450D70032F
:103B0C000239567402121CE3E0C0E0123B66D0E0AE
:103B1C00F00F7402121CE3A3E0C0E0123B66D0E08D
:103B2C0002395EEE70027E0A850E82850F83123B8F
:103B3C009B123ED8EEF97406121CAD7F10021DD9F3
:103B4C009002F3E028FAA3E03400FB22F514A3E082
:103B5C003400F515851482F58322123B6A229002FB
:103B6C00F3E02FFAA3E034008A82F58322123B6A39
:103B7C0074FF22123CE7A3A3A3A3E022124AA4855C
:103B8C000E82850F8312388522851082851183124F
:103B9C0049B3851682851783229002F3EAF0A3EBD2
:103BAC00F09002F31249B3E84922123EDEE8F0A38A
:103BBC00E9F079112274EA121D0774FE121C978A1F
:103BCC00088B098C128D13EA2405FEE43509FFAC31
:103BDC0018AD198E828F8312388112074E8A0C8B86
:103BEC000DEE2406F50EE43FF50FEA450D700302C9
:103BFC003CB9E5082402F50AE43509F50B8A828BF9
:103C0C0083A3A3A3E0A2E55028851882851983120B
:103C1C0038811208AA8A108B11EA4511602079129A
:103C2C00123877851082851183121D05E9F50C7009
:103C3C007F850E82850F83E0600979528011750CA7
:103C4C000E806D850882850983A3A3A3A3E0F9E404
:103C5C00F508F5097808121F1A8E828F83A3A3E04A
:103C6C00F5087808121F1A8E828F83A3A3A3121F44
:103C7C00318E828F8312481512387B1208BC740661
:103C8C00121CADE9F50C7011850E82850F83E07066
:103C9C002D12387B1204A280257416650C701175D8
:103CAC000C007418121CE3123CE3E48010750C0138
:103CBC001249AB851282851383E8F0A3E9F0850ED7
:103CCC0082850F83E0600479008002A90C740212D3
:103CDC001CAD7F0E021DD9123CE722E0F8A3E0F5E3
:103CEC008388822274EC121D0774F7121C978A0ABF
:103CFC008B0B8C108D11EA2405FEE4350BFF750C33
:103D0C0000AC18AD198E828F8312388112074E8A3F
:103D1C00088B09EA45097003023EAFE50A2402F557
:103D2C000A5002050B8A828B83A3A3A3E0A2E55061
:103D3C002F8518828519831238811208AA8A0C8B58
:103D4C000DEA450D604F7912AC08AD0912387B8530
:103D5C000C82850D83121D05E9F50C6003023EB241
:103D6C00850A82850B83E0F508A3E0F509AA08FB18
:103D7C0012089EEA4B70197AFF7BFF12089EEA4BE1
:103D8C007003023EA58A828B83E508F0A3E509F057
:103D9C007508008008750C0E023EB205089002EB07
:103DAC00E0F8E508C3984003023EA585080E750FA0
:103DBC00007403780E121C848A828B83A3A3E025E3
:103DCC000EF8A3E0350F12427970D08E828F8312D9
:103DDC003ECD1234C38E828F83A3A3123ECD1234F8
:103DEC00C1EE2404F508E43FF509850882F583E06B
:103DFC0088828983A3A3A3A3F0A3E4F0EE2405F5A2
:103E0C000EE43FF50F850E82F583123ECDA3A3A3DE
:103E1C00A31234C17512077513007812121F1AEE13
:103E2C00FCEFFD7404121CF51212767402121CAD18
:103E3C00E4F5127812121F1A850882850983E0FCBA
:103E4C007D00791712387B1208207402121CAD7495
:103E5C0007121CE31234C37407121CE3E0FA4B6024
:103E6C003D850882850983123EC4121F1A850E8275
:103E7C00850F831248151212767402121CAD74024F
:103E8C00121CFD12387B1204A8E960267407121C60
:103E9C00E31238811212FA8019750C098008750C1E
:103EAC00118003750C011249AB85108285118312A8
:103EBC003ED8A90C74098028E0F50875090078082B
:103ECC00221238858882898322123EDEE8F0A3E92B
:103EDC00F022E0F8A3E0F9850E82850F83227404AA
:103EEC00121CAD7F0C021DD974EC121D07123FE899
:103EFC00751000EE2402F50CE43FF50D850C82F5EF
:103F0C008312388112089E8A088B09EA45097003CE
:103F1C00023FCC850A82850B83E064016003023F7B
:103F2C00C1AC08AD09AA0AAB0B120892E9606E8508
:103F3C00088285098312324EEE2406F50AE43FF519
:103F4C000B8E828F83A3A3121F318E828F83A3A328
:103F5C00A3A3121F31850A82850B83121F31791896
:103F6C008E828F83123FFA1238811208BC740612AB
:103F7C001CADE9F8741668700B850A82850B83E416
:103F8C00F0A38014E860128E828F83123881850E24
:103F9C0082850F83EAF0A3EBF088108018780E125C
:103FAC001F1AAC08AD09EEFAEFFB12089874021256
:103FBC001CADE9F510AA08AB091208A4E510700EA7
:103FCC00850C82850D831238811204AE800974161B
:103FDC0065107003751000A910023EEFEAFEEBFFAE
:103FEC008C0E8D0FEE2405F50AE43FF50B22124AD8
:103FFC00A4850C82850D832274EA121D07750800B6
:10400C007509007E007F00750A00EC2402F510E4AF
:10401C003DF5118035EC65087003ED650960030210
:10402C0040B988828983A3A3E06A7003A3E06B7014
:10403C007C88828983A3A3A3A31249AFEE28FEEF49
:10404C0039FFEA28FAEB39FB050A124189503A8507
:10405C000A0C750D007403780C121C848510828573
:10406C00118312417C124279601FE508450970A545
:10407C008C088D098882898312324C88828983A3AB
:10408C00A3E02EFAA3E03F80BEE50AC394025003DE
:10409C00024177750800750900EE4F6010EEFAEFDB
:1040AC00FB1212F48A0E8B0FEA450F700579000291
:1040BC004179750B0002414C850B0C750D00740396
:1040CC00780C121C84851082851183E0250CF50C6C
:1040DC00A3E0350DF50DE50C2406F514E4350DF5CE
:1040EC0015851482F58312427E6042E50C2404F59A
:1040FC0012E4350DF513851282F583121F31E50E8E
:10410C002508FAE50F3509FB1212767402121CAD64
:10411C00851282851383E02508F508A3E03509F59F
:10412C00098514828515831238811212FAE50B6009
:10413C000D7C087D007900AA0CAB0D12128E050BBC
:10414C00E50BC3950A50030240C485108285118388
:10415C001249AF88828983A3A3A3A3A3A3E50EF07E
:10416C00A3E50F122DDFEEF0A3EFF07901023CDE98
:10417C0012418022E0250CF8A3E0350D229002EBD1
:10418C00E0F8E50AC3982274F0121D078A0E8B0F13
:10419C008C0A8D0B750D00750C0080507916EE2471
:1041AC0006F508E43FF5098E828F83A3A3121F3115
:1041BC008E828F83A3A3A3A3121F31850882850946
:1041CC0083121F31850E82850F83A3A312388112AF
:1041DC0008BC7406121CADE9F50D7416650D706CF7
:1041EC00850882850983E4F0A3F0050C9002EBE0CE
:1041FC00F8E50CC3985066AA0C8A0875090074037C
:10420C007808121C84850A82850B83A3A31242C8EA
:10421C00E8FEE9FF8E828F8312427E6040EA240121
:10422C00F508E43400F5099002EBE065087002E54E
:10423C0009601488828983A3A3A3A3A3A3A3A312B5
:10424C0038B060030241A879180241AAE9609B12B8
:10425C0049AB7410121CE3124270123ED8A90D7FA8
:10426C0008021DD9E0FAA3E0F5838A8222F988823C
:10427C008983124AA4EC4D2274F6121D077C00802F
:10428C00010C900348E0F8ECC398501E8C0875099B
:10429C000074027808121C841242BDE06A7003A3F9
:1042AC00E06B70DDE8FAE9FB80047A007B000243E6
:1042BC00609002E91242C88882898322E02508F8BE
:1042CC00A3E03509F92274F2121D078A088B0975CF
:1042DC000A0080278E828F83A3A3A3A3122DD660FE
:1042EC00031212FA7C087D007900EEFAEFFB121231
:1042FC008E8E828F83E4F0A3F0050A124189502739
:10430C00850A0C750D007403780C121C84850882C8
:10431C00850983A3A3E0250CFEA3E0350DFF8E8257
:10432C008F831238B070AD85088285098374FFF0D5
:10433C00A3F0024A9874F6121D071208508A828B59
:10434C0083E582458370067A007B008007A3A3A3D4
:10435C00A31238817F02021DD974F4121D0789083B
:10436C008C828D83E06402703C12494EFEA3E0F90E
:10437C00EEF874026870037429697029750A027565
:10438C000B00780A121F1A7410121CE3121F3174DE
:10439C0010121CE3121F31A90812117A7406121C98
:1043AC00ADE9F980027901022E1374E8121D07742D
:1043BC00FB121C97E9851882851983F08A168B17D6
:1043CC00ECFEEDFF7510008E828F83A3A3A3E0A2F9
:1043DC00E4502D741D121CE31238811208AA8A8233
:1043EC008B83E582458370030247ED790AEEFCEF7F
:1043FC00FDAA16AB17121D05E9F51060030247F074
:10440C00741F121CE3E0F508A3E0F5097421121CDB
:10441C00E3E0F50AA3E0F50B7423121CE3E0F50EC0
:10442C00A3E0F50F8E828F83E06402600302478E57
:10443C00A31249AF850882850983A38582128583DF
:10444C0013EE2406F50CE43FF50D8882898312489F
:10445C002DF514E439F5157814121FA40100002869
:10446C00012890440700022855450328C34400291D
:10447C0084460129AF460229504603298446042963
:10448C0028478E47E50E450F6003024789850C824D
:10449C00850D831249AFE8FAE9FB8A828B83E085AC
:1044AC000A82850B83124838121F1A8A828B83A3C7
:1044BC00E0FCA3E0024712E50E450F6003024789BA
:1044CC00850A82850B837401F01248228508828547
:1044DC000983F07C007D008E828F83A3A3A3A3E0CD
:1044EC002401FAA3E03400FB12074EEA4B60408A29
:1044FC00828B83E02402F8850A82850B83E028F006
:10450C00EA2404F8E43BF988828983E085128285E9
:10451C001383124846124838121F1A8A828B83A3BF
:10452C00124815E5082403FAE43509FB0247178500
:10453C000A82850B83E02404F07C047D007900AAB8
:10454C0012AB1312128E0247F0E50E450F600302F8
:10455C004789124822FEA3E0FF850A82850B8374EB
:10456C0004F0EE850882850983F0EF8512828513AD
:10457C0083F07403121CFDEEFAEFFB12074E8A0C4B
:10458C008B0DEA450D70030246338A828B83A3A3FD
:10459C0012324C7401121CED880E890F780E121F0A
:1045AC001A7405121CE3121F317CFF7DFF12075495
:1045BC007404121CAD8B0FEA450F7033850C828589
:1045CC000D83124819121F1A850C82850D83A312B4
:1045DC001F317C027D007A277B82120550740412F5
:1045EC001CADE9700A7401121CE374FFF0A3F08E89
:1045FC00828F83E064027039750C02750D00780CA3
:10460C00121F1A8E828F83A3124815E5082404FA10
:10461C00E43509FB1212767402121CAD850A8285F0
:10462C000B83E0240280097401121CE3EEF0A3EF6B
:10463C00F07401121CE31248077401121CE31247B8
:10464C00FE024783E50E450F6003024789850C8205
:10465C00850D83124A9DAA16AB17121180850A820A
:10466C00850B837402F0850882850983EAF0851234
:10467C0082851383EB024786E50E450F60030247E4
:10468C0089124822F8A3E0F9850A82850B8374020B
:10469C00F0E8850882850983F0E985128285138309
:1046AC00024786850C82850D83123881121270EABE
:1046BC00FAF8C3950EE4950F405CE8650E450F7053
:1046CC00047A008021851882851983E0FCE50E2C84
:1046DC00FCE4350FFDC3EC98ED94005003E080052D
:1046EC00E50ECAC39AFAEA850A82850B83F08A0A18
:1046FC00750B00780A121F1A850C82850D83E02534
:10470C000EFCA3E0350FFDAA08AB09121276740259
:10471C00121CAD0247F07510070247F0E50E450F6D
:10472C00705B850C82850D831249AF850A82850BDF
:10473C00837407F0888289831247FF1247F7E0855C
:10474C001282851383F0E82402FAE439FB8A828B07
:10475C00831248078A828B831247FEA3A3122DDE95
:10476C0012480CF0E82405F850010988828983125C
:10477C00480CA3124846A3A3A3A3F0806775100BA3
:10478C008062741D121CE31238811208508A828BCD
:10479C0083E5824583604A1249AF880C890DE84550
:1047AC000D603E7425121CE3E0F5107810121F1EEC
:1047BC00780E121F1A780A121F1A7808121F1A7410
:1047CC0007121CE3E0F9EEFCEFFDAA16AB17850C03
:1047DC0082850D83121D057407121CADE9F510803E
:1047EC000375100EA9107405023B44F0888289836E
:1047FC00A322A3E08508828509832212484DF0226A
:10480C0012484DA3A3229002EF124AA422E0F50E07
:10481C00750F00780E22850C82850D83123CE7E023
:10482C0022E0FAA3E0F8E4C8F9EA2822F08A828BA5
:10483C0083E0F50A750B00780A221247F712484DEF
:10484C0022E0850882850983A3A32274EE121D073A
:10485C0074FE121C978A088B09ECFEEDFF890AACDA
:10486C0018AD19EEFAEFFB12074E8A0C8B0DEA45C8
:10487C000D700302493F8518828519831238811205
:10488C0008508A828B83E5824583700302493AA3E0
:10489C00A31249AF880E890FE8450F700302493AFD
:1048AC007414121CE3E0F510A3E0F511E50AF50B06
:1048BC00780B121F1E7419121CE3121F3178101280
:1048CC001F1A741B121CE3E0F9AC0CAD0DAA08AB5B
:1048DC0009850E82850F83121D057405121CADE926
:1048EC00F50B705274FE650A604C850C82850D8345
:1048FC00E06402704112494EFAA3E0F9EAF874023E
:10490C00687003742969702E851082851183124892
:10491C002DF50CE439F50D780C121F1AEEFCEFFD99
:10492C00AA08AB091208D47402121CAD8008750BCE
:10493C000E8003750B01A90B7402121CAD7F0A02C9
:10494C001DD9A31249B388828983E02274F6121D03
:10495C000774FE121C97740C121CE31249AFE88505
:10496C001882851983F07401121CE3E9F0E4F50850
:10497C00F5097808121F1A7508027808121F1A74A4
:10498C0004121CED880889097808121F1A79FE1286
:10499C0008BC7406121CAD7402121CAD0243608E6E
:1049AC00828F831249B322E0F8A3E0F92274F71244
:1049BC001D07EAFEEBFF8908900306124815121139
:1049CC0080EA5402600BA908EEFAEFFB1207428052
:1049DC000279017F01021DD974F2121D0774FE12B7
:1049EC001C97EAFEEBFF890A7401650A60147402D5
:1049FC00650A6003024A937901120ADEE960030238
:104A0C004A93EEFAEFFB12089EEA4B60031208A4DD
:104A1C00A818A919880889097808121F1A7508029C
:104A2C007509007808121F1A75081775098278081D
:104A3C00121F1A7CFF7DFF7A017B00120748740657
:104A4C00121CAD8038850882850983A3A3A3A3A378
:104A5C00A3124A9DEEFAEFFB121168E4F50CF50D6A
:104A6C00780C121F1A7402121CE3121F317CFF7D8A
:104A7C00FFAA08AB091207547404121CAD8A088BE8
:104A8C0009E508450970BE7402121CAD7F06021DB3
:104A9C00D9123CE7124AA422E0FCA3E0FD2274F4F4
:104AAC00121D078A088B09ECFEEDFF901642E0F40C
:104ABC00604B7A097B0012129AEA4B60408A828B17
:104ACC008374B1F0A3E4124B0CF08A828B83A3A302
:104ADC00E508F0A3E509124B0CA3EEF0A3EFF0747C
:104AEC000C121CE31249AF8A828B83A3A3A3A3A34A
:104AFC00A3A3123ED8901642E0F91212A6022E136E
:104B0C00F08A828B83A3A3A3A322C082C08390616B
:104B1C00907404F0A37448F0A37402F09061807454
:104B2C0040F09061BC7403F09061877419F090624E
:104B3C0065741BF0906249E0C3941390619C401023
:104B4C007409F09060667401F090619F7428800D78
:104B5C00740BF0906066E4F090619F742CF0124D31
:104B6C00017009C29190037A7467800590037A747E
:104B7C0061F0124D52902AF8E493F46006E493F934
:104B8C00120BDA7905120E98024D60C082C083E9CF
:104B9C00540FF9906185E0696012E5C654B8444140
:104BAC00F5C6E59E5447644170F8E9F053C6B8E584
:104BBC009E544770FA024D60C082C083A8A853A8C7
:104BCC007E906181E41259E1C2BA539AFEC2897592
:104BDC009B00C2C275E90075910075BF0075A911E3
:104BEC0075B905906181F0A374C0F0A3E4F0D2BA5A
:104BFC00439A0174805842A8024D60F0A3F0024D14
:104C0C0060C082C08374F8121C97900378125EE126
:104C1C007003024CF9900378E0544060177908AAAD
:104C2C0018AB19120CD6AA18AB19120940900378BC
:104C3C00E054BFF0E054806010790C7A417B05128F
:104C4C000CD6900378E0547FF0E0A2E0501E124D99
:104C5C00017009C29190037A7467800590037A748D
:104C6C0061F0120946900378E054FEF0E0540260C3
:104C7C001E124D457009D29190037A747180059083
:104C8C00037A746AF0120946900378E054FDF0E060
:104C9C0054046010902AFC124D5512094C90037864
:104CAC00E054FBF0E054086010902AFD124D5512B0
:104CBC00094C900378E054F7F0E05410600D124D5D
:104CCC005212094C900378E054EFF0E05420600A43
:104CDC0012094C900378E054DFF0A3E05401600D0E
:104CEC00120BF8120952900379E054FEF07408127A
:104CFC001CAD024D6090619A124F5290051BE064FE
:104D0C000122C082C083E960051460178029124D0E
:104D1C00017009C29190037A7467801A90037A74B7
:104D2C00618013124D457009D29190037A74718091
:104D3C000590037A746AF0801B90619A124F44902C
:104D4C00051BE0640122902AFEE493906186F02218
:104D5C00A2E092AFD083D08202011F74EA121D0729
:104D6C0074F4121C9790818FAC18AD197404121B3B
:104D7C00AA902AFC93F46003024ED9907808E0C301
:104D8C0094025003024EBD9081227404121CFD74D7
:104D9C0008121BAAA818A919881489157404121CC6
:104DAC00ED88088909AE08AF097510FF7511FF75FC
:104DBC000EFF7C00750C48750D78801274086C70B1
:104DCC0003024E5374096C607E740A6C6079850C16
:104DDC0082850D837808121B5B8E828F83A909E56F
:104DEC000AC9F8881274187808121A9CE51245083A
:104DFC00F8C3E098A3E099850C82850D837808129E
:104E0C001B5B40188E828F8374187808121A9CE5ED
:104E1C00124508F8E0C398F8A3E0801A74187808D3
:104E2C00121A9CE5124508FAE9FB8E828F83125BFD
:104E3C00A8EAC398F8EB99F9C3E89510E9951150D5
:104E4C0006881089118C0E0CE50C2404F50C50020C
:104E5C00050DECC394135003024DC874FF6510701C
:104E6C000474FF65116024850E0874027808121C06
:104E7C008474482508F58274783509F5837808120E
:104E8C001B5B851482851583E508F0EE2402FE5029
:104E9C00010F851482851583A3858214858315746F
:104EAC000C121CE3E5826E7003E5836F6003024D08
:104EBC00B57508017509007808121F1A7402121CC6
:104ECC00FD7ABF7B0A1211CE7402121CAD740C1247
:104EDC001CAD7F0E021DD9C082C0839061AE746878
:104EEC00F0A3746AF090624574FBF0A304F053F4E1
:104EFC00FD43FE0290051B7401F09061A0E0643A42
:104F0C0090619A7019124F52740164017009C29128
:104F1C0090037A7467801E90037A74618017124F25
:104F2C0044740164017009D29190037A7471800504
:104F3C0090037A746A024C09743FF0A3745AF0908F
:104F4C0061A0747FF0227433F0A37455F09061A0CB
:104F5C00743AF0227F04021DD9C082C0839004CD24
:104F6C00E06401700A9004D2E06004790C8002794C
:104F7C0000024D60C082C08375E1F19004D0E06006
:104F8C005114600914605514604D147054120C0ABD
:104F9C009004BFE0F97AC07B04120E1A9081CF12F4
:104FAC001B79120E5090816F121B79120E269004F1
:104FBC00D1E0F9120E327901120E8C12509F241A84
:104FCC00F582E438F5837422F0A3740CF0790002B6
:104FDC004D60120C1080B9120C1680B4120C1C808F
:104FEC00AF791280EA74F4121D0775D90D9004C6BE
:104FFC00E0A2E0E4331313F81251D7484401F5D979
:10500C007582C07583041251E17004E583640470E9
:10501C00F57582C7758304125320E58264CD700444
:10502C00E583640470F175E1959004C6E0F97AC7E4
:10503C007B04120E2090166674B0F0A3740B125100
:10504C001612516012515712529A9004D0E064011A
:10505C009004BD700B1250A8121B5B9081CB800981
:10506C001250A8121B5B9081C77808121AE7908126
:10507C00B37808121B3512509F12514E7808121B30
:10508C006A12509F1251457413F09003767402F01B
:10509C00024F609004BDE0F8A3E0C822125E507885
:1050AC00082274F7121D071251C7F5D97582C07505
:1050BC0083041251E17004E583640470F59004D606
:1050CC00E0600A78D77904FA1251BBDAFB12526805
:1050DC001251E17004E583640470F59004F6E0600D
:1050EC000A78F77904FA1251BBDAFB75E195901640
:1050FC006674BCF0A3740B1251161251207412F08A
:10510C009003767401F0FF021DD912528374B6F02D
:10511C00A3740B2212516012515712529E9004BD6F
:10512C00E0F8A3E0C812514E74FF1259CF9004BDA1
:10513C00E0F8A3E0C8125145222414F582E438F5B6
:10514C008322240EF582E438F58322F0A374CEF08A
:10515C00A3740B221251642212516822F0A37436EC
:10516C00F0A3740D2274F7121D071251C74402F5F7
:10517C00D97582C07583041251E17004E58364040F
:10518C0070F59004D6E0600A78D77904FA1251BB16
:10519C00DAFB75E1959016661251E9F0A31251E90C
:1051AC001251237414F09003767404F002551C8889
:1051BC00828983125324A882A983229004D6125187
:1051CC00CE22E02407F5D91251D7229004BFE0C4B7
:1051DC00333354C022125324E58264C62274C8129D
:1051EC0051F61251F6F0A3740B22F0A3740BF0A33A
:1051FC0074C82274F7121D071251C74406F5D975ED
:10520C0082C07583041251E17004E583640470F567
:10521C009004D6E0600A78D77904FA1251BBDAFB15
:10522C001252681251E17004E583640470F5900425
:10523C00F6E0600A78F77904FA1251BBDAFB75E1F3
:10524C009590166674C2F0A3740B12527912512009
:10525C007415F09003767403F002551C9004F6124A
:10526C0051CE4404F5D97582C07583042212528341
:10527C007436F0A3740D2212528722125294743693
:10528C00F0A3740D12529422125168F0A322125200
:10529C009E22F09016747436F0A3740D125287741B
:1052AC0036F0A3740D125164F022C082C0831250E8
:1052BC009F2406F582E438F583E4024C0774F71258
:1052CC001D079003A4125B9A74A628F8740339F98D
:1052DC00E82405FAE439FB8A828B83125C5D8882B0
:1052EC008983A3A3A3A3A3A3A3A3A3ECF0A3ED126D
:1052FC005319A3A3A3A3A3A3E024FFF8A3E034FFB3
:10530C00F98A828B83E8F0A3E9F002551CF08882BD
:10531C008983A32212532422E0F5D9A3229061D0D1
:10532C00E0F87480C398FC12533C22F012533C22D8
:10533C00EA2483F582E43BF583E0221253522404E1
:10534C00F8E43583F922F582E43FF583E5822212F5
:10535C005324E865822274F7121D07EAFEEBFF90D6
:10536C0061D0E0707875D90E75D90375D904EE2427
:10537C008C1253EE12535B7003E9658370F6EE24C6
:10538C008412534712535B7003E9658370F675E121
:10539C00957908EE248CFAE43FFB120CCA7904EEE2
:1053AC002484FAE43FFB120CCA7C00EE24ABF8E434
:1053BC003FF9ECFAC3E49AFA95E0FBEE2AFAEF3BDC
:1053CC00FBEA248B125E6A88828983F00CA3A88284
:1053DC00A983ECC3940840DA1254FD8002790002D0
:1053EC00551C1253522408F8E43583F922C082C0AC
:1053FC008375D90275D90375D90575E195EA246FC2
:10540C00F582E43B125BA6EA2471F582E43B12556B
:10541C000A024D6074F6121D07EAFEEBFF9005219F
:10542C00740612547F121F1A7C017903120D2A7410
:10543C0002121CAD75D90675D903758221758305C9
:10544C001254777004E583640570F575E19590034B
:10545C0076E064087010EE246FF582E43F125BA6D0
:10546C00EE2471125CDE7901025645125324E5825A
:10547C00642622F075082175090578082274F61245
:10548C001D07EAFEEBFF9061D0E0703678019005C5
:10549C0021740BF0900376E0640770197508217580
:1054AC0009057808121F1A7C017903120D2A74025F
:1054BC00121CAD780512574D125320DAFB1254FA18
:1054CC008002790002564574F7121D07EAFEEBFFC5
:1054DC0075D90375D90375D90DEE24DE125E44F52A
:1054EC00D975E1957904120E561254FD802275E19E
:1054FC0095EE246F125EE7EE2471F582E43FF5839E
:10550C00E8F0A3E9F0790122F0EEA2E092AF790085
:10551C007F01021DD974F6121D07125652600478D1
:10552C000480027800E8240BF8EAC39840457C0913
:10553C00900521EC1255991255A8DDFB125E4160C5
:10554C001B7508217509057808121F1A7903EEFAE4
:10555C00EFFB120D2A7402121CAD7C0D1255841235
:10556C00564A70FB75E1957904120E561256CD7998
:10557C00018002790002564512558A8C082274016A
:10558C002CF5D975D90375822175830522F0EE248B
:10559C00E3F8E43FF97A227B057D08221255AC2210
:1055AC0088828983E08A828B83125319A882A9830B
:1055BC008A828B83A3AA82AB832274F6121D0712F4
:1055CC0056526004780480027800E82408F8EAC394
:1055DC009840647806900521740CF0900393E09049
:1055EC000522F0900394E0900523F0900395E09051
:1055FC000524F0900396E0900525F0900397E09039
:10560C0005261256E1601B750821750905780812EC
:10561C001F1A7C067903EEFA120D2A7402121CADC5
:10562C00780A1256DB12564A70FB75E19579041212
:10563C000E561254FD800279007F02021DD91253BE
:10564C00241508E50822EAFEEBFF9061D0E0F8741F
:10565C0080C398FA1256E62274F6121D071256529F
:10566C006004780480027800E82404F8EAC39840C7
:10567C004B7802900521E8F0EE24F5125E4490057B
:10568C00221256E1601B7508217509057808121F56
:10569C001A7C027903EEFA120D2A7402121CAD78F0
:1056AC00061256DB12564A70FB75E1951256CD79EF
:1056BC0004120E56EE240D1255008002790002568B
:1056CC0045EE241DF582E43FF583E4F0A3F02212AD
:1056DC005753880822F01256E622EE2483F582E412
:1056EC003FF583E02274F6121D07125329600478EB
:1056FC000480027800E82404F8ECC398403E780259
:10570C009005217407F0EA24F6125E6A90052212C5
:10571C00533760197508217509057808121F1A7C12
:10572C00027903120D2A7402121CAD780612574D21
:10573C00125320DAFB75E19579018002790002564B
:10574C0045125753E8FA22740128F5D975D9037517
:10575C0082217583052274F7121D07E9FFA2AFE4BD
:10576C0033FEC2AF7C0080010C1257F95011ECF8DB
:10577C00EA28F8E43BF91257EFE06F70EB8016EA79
:10578C00246EF8E43BF9E0FCEA2CFAE43BFB1258FB
:10579C001CEF1258E0EEA2E092AF02551CC082C082
:1057AC0083A2AFE433FDC2AF125E6714F07C0080BD
:1057BC001BECF8EA28F8E43BF9E8246BF582E439B1
:1057CC00F583E0C0E01257EFD0E0F00C1257F9402F
:1057DC00E0EA246DF582E43BF58374FF125826ED64
:1057EC00024D5CE8246AF582E439F58322125E6787
:1057FC00F8ECC39822C082C083A8A8C2AF12581C70
:10580C00E9125826E8A2E7E433FAE8A2E7024D5E73
:10581C00EA246AF582E43BF58322F0EA2469F582F6
:10582C00E43BF583E4F02274F3121D07EAFEEBFF70
:10583C00ECFAEDFB8A828B83A3A3A3A3E0541FF0A5
:10584C00EE2436F582E43FF583E4F0750A00EE248D
:10585C005DFCE43FFD8A828B83E08C828D83F07546
:10586C000B00E50A33333354F8F50C8A828B83E052
:10587C00F508750900E50B7808121C65E508A2E02F
:10588C005027EE2436F8E43FF988828983E0F50846
:10589C00EE2508F508E43FF509E5082438F582E41F
:1058AC003509F583E50C1258E0050B050CE50BC327
:1058BC00940840B7050A8A828B83A3AA82AB838C97
:1058CC00828D83A3AC82AD83E50AC3940540867FA9
:1058DC0005021DD91258E604F022F088828983E073
:1058EC002274F7121D079003A2E0640170030259A1
:1058FC00C79003A8E060030259C77401F0A3E4F059
:10590C00A3F090040804F090040DF09003AB12592E
:10591C00CE9003B504F09003DBE4F09003BE125973
:10592C00D5A3F0900425F0900419F0900428F09081
:10593C00040E7480F0A3E4F0900414F0900491121F
:10594C0059EC90049AF0900429F09004791259ECD7
:10595C00A3F0A3F0900485F0900487F0900483F0FA
:10596C0090049D1259EC9004B0F09004AA1259D5F1
:10597C0074FF9004107804F0A3D8FC7A037B0478AD
:10598C00B179041259E764B67003E9640470F47ACF
:10599C00897B04788A79031259E764927003E9646D
:1059AC000370F49003A2E004F0640170089003AA61
:1059BC00E09003A4F07AA67B0380047A007B0002BB
:1059CC00551CE41259E1A3F0221259D9221259E1C3
:1059DC00A31259E122F0A3F0A3F0221255ACE82255
:1059EC001259D9A3F0A3F022C082C0838A828B8380
:1059FC00A3A3A3E0600F8A828B83A3A3A3E4F090FC
:105A0C0003A3E014F09003A2E014F070069003A43A
:105A1C0074FFF08A828B83A3A3E4F09004B6E07049
:105A2C000D9003A3E0640170057900120E38024D4D
:105A3C0060C082C0839003A9E4F09003A8F09003A7
:105A4C00A2F0A3F0A374FFF075E1F1024D60C082E7
:105A5C00C083780079009003A9E0600478A67903EC
:105A6C0088828983A3A3A3A3E0F9024D6074EE128C
:105A7C001D078A0A890C9003A3E0F8E9C398502209
:105A8C0078FF79FF9003A9E06013900419E064019A
:105A9C00700590041F80039003D4125BA8E8FEE904
:105AAC008011E96009A3125B9A125B8B8005EA2ACC
:105ABC00FEEB33FF8E0E8F0F7403780E121C759055
:105ACC0003A3E0F8C3E50E98E50F94005003025BC6
:105ADC0077E50A25E0F50AEB33F50BEC2CF508ED30
:105AEC0033F509AC0AAD0B8007EC2402FCE43DFD58
:105AFC00C3E5089CE5099D4060C3EC9EED9F403FCB
:105B0C00ECF8EDF9EEFAEFFB121C0C8B0FEA450FDB
:105B1C0060068E0E8F0F8006750E00750F00ECF868
:105B2C00EDF9EEFAEFFB121C0C8A108B11EC9510B0
:105B3C00F8ED9511F9E8250EFCE9350FFD801AE01A
